:060000000A128A110C280F
:10000800FE00030EF0000A08F1000A128A15762F86
:100018000A128A110F28831603130A128A11F92764
:100028000A128A11CC000A128A11FA270A128A11B6
:10003800CD000A128A11FB270A128A11CE000A1271
:100048008A11FC270A128A11CF000A128A11FD2789
:100058000A128A11D000831790308400B0300A1237
:100068008A15D7260A128A118313C2308400CC302D
:100078000A128A15D7260A128A11613084006E3056
:100088000A128A15D7260A128A11FB0183010A125D
:100098008A114E280A128A15EA260A128A11013094
:1000A80083160313850087010A128A15DF260A12B0
:1000B8008A11B0308400831603134C088313800020
:1000C800840A4D088000840A4E088000840A4F087C
:1000D8008000840A500880002030840030088000A6
:1000E800840A31088000840A32088000840A3308B0
:1000F8008000840A340880000A128A11DA210A1260
:100108008A1100300A128A117D260A128A110130DA
:100118000A128A117D260A128A1108300A128A11D7
:100128007D260A128A1100300A128A117D260A12C7
:100138008A110130F8008030F9000A128A117127FB
:100148000A128A110C300A128A117D260A128A11A3
:100158000A300A128A117D260A128A111F30F80005
:100168008030F9000A128A1171270A128A1183163F
:100178000313BF010C300A128A117D260A128A1154
:100188000A300A128A117D260A128A113C30F200BE
:100198000030F300831203136D08F5006C08F400B7
:1001A8000A128A11B7270A128A11730883160313D1
:1001B800BC007208BB003C30F2000030F300831230
:1001C80003136D08F5006C08F4000A128A15C82795
:1001D8000A128A11730883160313BE007208BD0041
:1001E800C23083120313CE001530CF0083160313D9
:1001F8003C0883120313D100831603133B088312B0
:100208000313D000831603133E0883120313D3008D
:10021800831603133D0883120313D2000A128A15AA
:100228002E270A128A11C230F8000030F9000A128B
:100238008A1171270A128A110A128A15F8260A12D7
:100248008A11730883160313B6007208B5000830C4
:100258000A128A117D260A128A1100300A128A119E
:100268007D260A128A11831603133F08031D3D29B0
:100278003E29BE2808300A128A117D260A128A11E0
:1002880009300A128A117D260A128A110030831257
:100298000313A7000030A6000330A500FF30A40018
:1002A800831603133508F2003608F300F401F5014C
:1002B8000030F9000030F8001330F7008830F600FD
:1002C8000A128A1125270A128A1175088312031344
:1002D800AB007408AA007308A9007208A8000A12E3
:1002E8008A11C0250A128A1183120313250883165E
:1002F8000313C10083120313240883160313C000D9
:10030800E830F2000330F3004108F5004008F4003B
:100318000A128A11B7270A128A117308831603135F
:10032800B8007208B700E830F2000330F300410863
:10033800F5004008F4000A128A15C8270A128A1123
:10034800730883160313BA007208B900A030831229
:100358000313CE000B30CF00831603133808831223
:100368000313D10083160313370883120313D00035
:10037800831603133A0883120313D3008316031357
:10038800390883120313D2000A128A152E270A127B
:100398008A11A030F8000030F9000A128A1171277A
:1003A8000A128A11BE280A128A110C2861308400A8
:1003B80083120313200883138000840A2108800015
:1003C800840A22088000840A23088000840A2408FA
:1003D800800000306206031DF32905306106031D05
:1003E800F629F729FB29831603138501322A0030E1
:1003F8006206031D012A06306106031D042A052A28
:10040800092A831603138601322A00306206031D67
:100418000F2A07306106031D122A132A172A83168A
:1004280003138701322A00306206031D1D2A083093
:100438006106031D202A212A252A83160313880111
:10044800322A00306206031D2B2A09306106031D7B
:100458002E2A2F2AA22A8316031389016830F9004D
:10046800E430F800F80B362AF90B362A000003307E
:100478000A128A117D260A128A111A30F900F830F8
:10048800F800F80B452AF90B452A000003300A1238
:100498008A117D260A128A115430F9001C30F8009E
:1004A800F80B542AF90B542A000003300A128A1157
:1004B8007D260A128A1102300A128A117D260A1232
:1004C8008A1102300A128A117D260A128A1108300E
:1004D8000A128A117D260A128A1100300A128A111C
:1004E8007D260A128A1106300A128A117D260A12FE
:1004F8008A110830FA007A157A08F80004300310D7
:10050800F80CFF3E031D832A78080F390A128A1156
:100518007D260A128A117A080F390A128A117D2655
:100528000A128A1100300A128A117D260A128A11CB
:1005380001300A128A117D260A128A110800F40075
:10054800741CA72AA82ABD2A8312031361088400F1
:100558008317621C83130130F20064080739013ED7
:10056800B72A0310F20DFF3E031DB52A7208800456
:10057800D22A83120313610884008317621C831331
:100588000130F20064080739013ECC2A0310F20D4D
:10059800FF3E031DCA2A7208FF3A8005F41CD52ABB
:1005A800D62AEC2A610884008317621C8313013061
:1005B800F200640CF300F30C730C0739013EE62AD1
:1005C8000310F20DFF3E031DE42A72088004022B7B
:1005D800610884008317621C83130130F200640CE5
:1005E800F300F30C730C0739013EFC2A0310F20DDB
:1005F800FF3E031DFA2A7208FF3A8005741D052B79
:10060800062B192B610884008317621C83130130A1
:10061800F20065080739013E132B0310F20DFF3E67
:10062800031D112B720880042C2B6108840083178A
:10063800621C83130130F20065080739013E262B3E
:100648000310F20DFF3E031D242B7208FF3A8005AC
:10065800F41D2F2B302B462B610884008317621C56
:1006680083130130F200650CF300F30C730C0739A7
:10067800013E402B0310F20DFF3E031D3E2B720876
:1006880080045C2B610884008317621C831301308B
:10069800F200650CF300F30C730C0739013E562B7E
:1006A8000310F20DFF3E031D542B7208FF3A80051C
:1006B8000800831203133F08840083130008840092
:1006C8000A128A150A200A128A11253A031D6D2B6F
:1006D8006E2BF52B3F08840001308007E601E70107
:1006E8000030FB00FF30E800FF30E900C701922B23
:1006F800FB143F08840001308007922B0130C700AB
:10070800922B3F088400000884000A128A150A20E8
:100718000A128A11303A03197C2B822B47080319D5
:10072800962B972B852B3F08F8004008F9000A12F2
:100738008A1126260A128A11790883120313E70000
:100748007808E600E71FA92BAA2BB02B7B14E60933
:10075800E709E60A0319E70A3F088400831300083B
:10076800C800480884000A128A150A200A128A1149
:10077800753A031DC02BC12BED2B400884000008DF
:10078800FF00023080077F0884000008C300840A45
:100798000008C4003F0884004808013E8000E22B9E
:1007A8003D08B4003E08B5004408B7004308B60049
:1007B8000A128A1141250A128A110E2C480884004F
:1007C8000A128A150A200A128A11753A0319D42BBB
:1007D800ED2B831203133F08840001308313800735
:1007E8000E2C3F088400000884000A128A150A208B
:1007F8000A128A11C100C2014108F2004208F3003E
:100808003D08F4003E08F5000A128A110F240A1266
:100818008A11ED2B0800740875040319142C152C83
:100828001B2C74087504031D1A2C1B2C222C72080F
:100838000A128A11FE270A128A11AE2C7408093E80
:1008480083120313A00075080318013E003EA1009F
:10085800200884008317211C83130008A200840A3F
:100868000008A3002208230403193B2C3C2C6E2CFF
:100878007408093EA00075080318013E003EA10057
:10088800200884008317211C83130008A200840A0F
:100898000008A3007408023EA40075080318013E6E
:1008A800003EA500240884008317251C8313000834
:1008B800A600840A0008A7002708803AA800230891
:1008C800803A2802031D6A2C2208260203186D2C80
:1008D8006E2CAE2C740884008317751C83130008D3
:1008E80083120313A000840A0008A1007408023EC2
:1008F800A20075080318013E003EA30022088400E8
:100908008317231C831300082007A5002108A400CF
:100918000318A40A801F912CA4038312031324082C
:10092800A600250884008317261C831372088000FC
:100938007408023EA00075080318013E003EA1009D
:10094800200884008317211C831301308007840A40
:100958000318800A0800F700831203136108840053
:100968008317621C83130130F50063080739013EC1
:10097800BF2C0310F50DFF3E031DBD2C7508800428
:100988007708F50004300310F50CFF3E031DC72C53
:1009980075080F390A128A11A3220A128A118312C2
:1009A8000313610884008317621C83130130F50068
:1009B800630CF600F60C760C0739013EE52C0310A3
:1009C800F50DFF3E031DE32C750880043530F50056
:1009D800F50BEC2C83120313610884008317621C47
:1009E80083130130F500630CF600F60C760C07391A
:1009F800013E002D0310F50DFF3E031DFE2C75086A
:100A0800FF3A800577080F390A128A11A3220A12C1
:100A18008A1183120313610884008317621C8313ED
:100A28000130F500630CF600F60C760C0739013E30
:100A38001F2D0310F50DFF3E031D1D2D75088004A5
:100A48003530F500F50B262D831203136108840059
:100A58008317621C83130130F500630CF600F60C53
:100A6800760C0739013E3A2D0310F50DFF3E031DA4
:100A7800382D7508FF3A80050800013083120313EA
:100A8800B8006708BA006608B9001F30BB0000301C
:100A9800BC0083160317AF01892DFF30831203139F
:100AA800BB070318BC0AFF30BC073B08903E840014
:100AB8000A30F2000030F3003708F5003608F40079
:100AC8000A128A15C8270A128A117208303E83173B
:100AD800800083120313B801FF30B9070318BA0A5C
:100AE800FF30BA070A30F2000030F3003708F5008B
:100AF8003608F4000A128A11B7270A128A117308F5
:100B080083120313B7007208B600831203133B085D
:100B18003C040319902D912DAD2D36083704031D83
:100B2800962D972D512D3808031D9B2D9C2D512D49
:100B38003A08803AFF0080307F02031DA52D01305E
:100B48003902031CA82DA92DAD2DFB18AC2DAD2DF8
:100B5800512D831203133408AC003508AD003B084F
:100B6800903EAE003A08B0003908AF000A128A1168
:100B7800D2260A128A110800003083120313B0002B
:100B88000030AF000030AE000030AD00270826046A
:100B9800250424040319D12DD22D1D2E0130B100B6
:100BA800E02D0130AC000310A40DA50DA60DA70D76
:100BB800AC0BD72D0130B107A71FE32DE42DD52DA0
:100BC8000130AC000310AD0DAE0DAF0DB00DAC0B88
:100BD800E62D27082B02031DFB2D26082A02031DDC
:100BE800FB2D25082902031DFB2D24082802031CC0
:100BF800FE2DFF2D0E2E2408A8022508031C250F04
:100C0800A9022608031C260FAA022708031C270F7F
:100C1800AB022D1401300310A70CA60CA50CA40CD4
:100C2800FF3E031D0F2E0130B102031D1C2E1D2E89
:100C3800E42D3008A7002F08A6002E08A5002D08CF
:100C4800A400080083120313A101A20178088400FC
:100C58008313000884000A128A150A200A128A11CE
:100C68002A3A031D382E392E672E78088400013061
:100C78008007790884000008FF00023080077F0899
:100C880084000008A100840A0008A200782E220827
:100C9800F3002108F2000A30F4000030F5000A12CF
:100CA8008A1551270A128A11831203132008720722
:100CB800A1000030031801307307A20078088400EF
:100CC80001308313800778088400000884000A1222
:100CD8008A150A200A128A11D03EA0000A30200282
:100CE800031C772E782E4B2E2208F9002108F800D5
:100CF8000800F70083120313610884008317621C3D
:100D080083130130F50063080739013E8D2E031067
:100D1800F50DFF3E031D8B2E7508FF3A80057708F9
:100D28000A128A11A3220A128A1183120313610874
:100D380084008317621C83130130F500630CF600EE
:100D4800F60C760C0739013EAB2E0310F50DFF3E6D
:100D5800031DA92E750880041530F600C630F5006D
:100D6800F50BB42EF60BB42E0000831203136108A2
:100D780084008317621C83130130F500630CF600AE
:100D8800F60C760C0739013ECB2E0310F50DFF3E0D
:100D9800031DC92E7508FF3A800508007B1CD52E57
:100DA800D62EE32E831203132E08F6002C08F70024
:100DB8002D08F8000A128A159D270A128A11831233
:100DC8000313B01FE82EE92EEB2EAF01B001B201DC
:100DD800B301052F2030F2000030F3008312031313
:100DE8002C08F4002D08F5000A128A110F240A12A3
:100DF8008A11013083120313B2070318B30A0030B3
:100E0800B3073308803AB1003008803A3102031D35
:100E18000F2F2F083202031C122F132FEE2E7B18D0
:100E2800162F172F242F831203132E08F6002C08D1
:100E3800F7002D08F8000A128A159D270A128A1150
:100E48000800003083120313A3000030A200003012
:100E5800A1000030A000721C322F332F4C2F7608CF
:100E680083120313A007770803110318013E03191F
:100E78003E2FA107780803110318013E0319452FD7
:100E8800A207790803110318013E03194C2FA30781
:100E98000130FA000310F60DF70DF80DF90DFA0BF5
:100EA8004E2F01300310F50CF40CF30CF20CFF3E3E
:100EB800031D562F7508740473047204031D652FEF
:100EC800662F2F2F831203132308F5002208F4003E
:100ED8002108F3002008F200080083120313A3017D
:100EE800A4019A2F23087807A1007908A000031805
:100EF800A00AA31F802FA003831203132008A200B7
:100F08002208FF00210884000A128A1500200A120C
:100F18008A110A128A11AF240A128A110130831227
:100F28000313A3070318A40A0030A40723087807AB
:100F3800A1007908A0000318A00AA31FA42FA003EA
:100F4800831203132008A2002208FF00210884004E
:100F58000A128A1500200A128A11003A031DB52FB9
:100F6800B62F762F0800F601F701720873040319EB
:100F7800BE2FBF2FF42F0130F800CB2F0130031004
:100F8800F20DF30DFF3E031DC32F0130F807F31FC9
:100F9800CE2FCF2FC22F01300310F60DF70DFF3ED5
:100FA800031DD02F73087502031DDC2F720874020D
:100FB800031CDF2FE02FE72F7208F4027308031CCD
:100FC800F503F502761401300310F30CF20CFF3E22
:100FD800031DE82F0130F802031DF32FF42FCF2F44
:100FE8007708F3007608F2000800073400341A3452
:060FF8002C343E34080019
:10100000FF1B0A2883137F1883170008840A03191B
:10101000FF0A080008308A000408840A82070034A6
:1010200056346F346C34743461346A3465343A3411
:1010300020340034253475342E34253430343234A1
:101040007534203456340034253430343234753419
:101050003A3425343034323475340034303430345A
:081060003A343034303400341E
:101DAE0064008001840A0406031900340406D82E48
:101DBE0007308316031381006430831203138100EE
:101DCE008B168B17080001308316031788008901C4
:101DDE008130831203139F008030831603139F00FC
:101DEE0008000630F400F40BFA2E000083120313E1
:101DFE009F149F18032F042F002F1E08F300831625
:101E0E0003131E08F2000800831203134B08CD00C3
:101E1E001D2F4908BD004A08BE004D30BF004C08BA
:101E2E00C0000A128A115D230A128A158312031347
:101E3E004D0884000A128A150A200A128A15003AE1
:101E4E00031D2A2F2B2F102FC901CA010800503055
:101E5E0083120313D5004E08D6000030D700D801E8
:101E6E00D901DF01E0015630C9000030CA004F0829
:101E7E00CB005530CC000A128A150B270A128A1590
:101E8E008312031358084E07D4005408840083139A
:101E9E0080010800F601F701721C562F572F5D2F97
:101EAE007408F6070318F70A7508F70701300310D0
:101EBE00F40DF50DFF3E031D5E2F01300310F30CE4
:101ECE00F20CFF3E031D652F72087304031D702F65
:101EDE00712F532F7708F3007608F20008000B1DC0
:101EEE00792F7A2F962F013083120313EA070318E6
:101EFE00EB0A0030EB0700306B02653003196A0203
:101F0E00031C8A2F8B2F932F0130EC070318ED0A39
:101F1E000030ED07EA01EB01643081000B1171080E
:101F2E008A00700E8300FE0E7E0E090083120313CC
:101F3E00AA01AB01BA2F2908F900FA017908F200BB
:101F4E007A08F3007708F4007808F5000A128A116F
:101F5E000F240A128A15013083120313AA070318DD
:101F6E00AB0A0030AB072A087607F900790884001F
:101F7E0083170008A9002908031DC62FC72FA22FFB
:101F8E000800720873040319CD2FCE2FFB2F0130DA
:101F9E00F600DA2F01300310F20DF30DFF3E031D94
:101FAE00D22F0130F607F31FDD2FDE2FD12F73084E
:101FBE007502031DE42F72087402031CE72FE82F2D
:101FCE00EE2F7208F4027308031CF503F5020130BC
:101FDE000310F30CF20CFF3E031DEF2F0130F6023F
:101FEE00031DFA2FFB2FDE2F7508F3007408F20085
:021FFE000800D9
:04400E00F22FFF3F4F
:00000001FF
