:060000000A128A11F92F1B
:100F820083160317880189018316031301087F3929
:100F92008100FF308600880103108312061C0314AF
:100FA2000318D42FD82F831203130814DB2F8312B4
:100FB200031308100310861C03140318E12FE52FF6
:100FC200831203138814E82F83120313881003106B
:100FD200061D03140318EE2FF22F831203130815B4
:100FE200F52F831203130811CD2F0A128A1100283C
:0E0FF200F001F101F20183010A128A11C12FF0
:04400E00F12FFF3F50
:00000001FF
