:060000000A128A110C280F
:10000800FE00032EF2000A28F3000A328A31FA08A9
:100018000A128A110F28F721F82183320333BD21F0
:1000280083210A328A317008B721B621B521B4215B
:100038002F282E242D242C24033967080110B800FA
:10004800AF3B32080110F5000330AC2DAD2DAE2DBD
:10005800AF2DF52B28080110B82724080110F5004A
:100068000330B42DB52DB62DB72DF52B34082F2818
:100078003322033D49082E283222033D49082D2802
:100088003122033D49082C283022033C5A082C28E9
:10009800B0222D28033C2D2FB1222E28033C2E2FD1
:1000A800B2222F28033C2F2FB322343401100330FF
:1000B800AF2CAE2CAD2CAC2CFF1E033D5B08011001
:1000C800B822033D32083728AF003628AE0035285D
:1000D800AD003428AC00080083368821833288219B
:1000E800FF10833685000A328A3138010A328A3194
:1000F8000A328A3144010A328A310A328A312801A5
:100108000A328A3175288332BC007428BB008B33CD
:100118000310AF21AE21AD00FF10AC003B28A000BA
:100128003C28A1000010A221A321A700A600A50039
:100138001E10A4000A328A31BE000A328A312328EE
:10014800B3002228B2002128B1002028B0000A32CA
:100158008A3118000A328A312C28BD008B373410B6
:1001680083320333BA00F110B900B92BB908BA2B9E
:10017800B90881080010AB00AA00A900A800203C1B
:10018800D9082428A827252803310338011E033D50
:10019800A927262803310338011E033DAA2727284B
:1001A80003310338011E033DAB270110F40003306F
:1001B800A42DA52DA62DA72DF42BDB0801100330A7
:1001C800A32CA22CA12CA02CFF1E033DE30823285E
:1001D800222421242024033DC3082B28A3002A28F5
:1001E800A2002928A1002828A00008000B3D210909
:1001F800833203333D28F000F12171287822033D32
:1002080007097028772203380D098332033308342D
:1002180010098332033308300110F7270338F82A0E
:100228000010F8277822C81003397722033C1E09EA
:10023800F721F821641081000B3173288A00722E8F
:100248008300FE2E7E2E09001A10F600F62B2A09CE
:100258000000833203339F349F3830091E28F5008D
:1002680083361E28F400080001100337880089210E
:100278008110833203339F00801083369F0008006B
:10028800021081006410833281008B368B3708009E
:04400E00F22FFF3F4F
:00000001FF
