:060000000A128A11FC2F18
:10002600F800F401F5017008F200F3017208F60019
:100036007308F700781C2028212827287608F4075B
:100046000318F50A7708F50701300310F60DF70DCA
:10005600FF3E031D28280310F80C7808031D3428DA
:1000660035281D287508F1007408F0000800831271
:100076000313A80028080319412842285628A31F5D
:100086004528462856282009AA002109AB0022093E
:10009600AC002309AD00AA0A0319AB0A0319AC0A7E
:1000A6000319AD0A5E282308AD002208AC0021081A
:1000B600AB002008AA002308220421042004031D03
:1000C600652866286F280030A3000030A2000030A3
:1000D600A1000030A000EF289630A9007D2801304D
:1000E600A90701300310AD0CAC0CAB0CAA0CFF3EFB
:1000F600031D7528FE302D05031D822883287228CE
:100106009D280130A9070130AA07003003180130E5
:10011600AB07003003180130AC070030031801307C
:10012600AD0701300310AD0CAC0CAB0CAA0CFF3EB6
:10013600031D9528FF302D05031DA228A32884281A
:10014600AF280130A9020130A4000310AA0DAB0D9F
:10015600AC0DAD0DA40BA828AC1BB228B328B9284A
:10016600023029020318B828B928A4282918BC285F
:10017600BD28C528FF30AA05FF30AB057F30AC058A
:10018600FF30AD050310A90C2908A400A501A6019E
:10019600A70118300310A40DA50DA60DA70DFF3E4F
:1001A600031DCD282408AA042508AB042608AC04A0
:1001B6002708AD0428080319E128E228E728A31F29
:1001C600E528E628E728AD172D08A3002C08A2008D
:1001D6002B08A1002A08A000080077088312031341
:1001E600A4008030A4057708F8007807AB00F61F56
:1001F600FD28FE28FF282B142B08031903290429A0
:1002060014292B0A031D0829092911290030F70092
:100216000030F6000030F5000030F400F617F70164
:100226001C290030F7000030F6000030F5000030E1
:10023600F40073088039A4067308F8007807AC0048
:10024600F21F2629272928292C142C0803192C29C2
:100256002D293D292C0A031D312932293A2900303E
:10026600F3000030F2000030F1000030F000F21729
:10027600F30145290030F3000030F2000030F100B0
:100286000030F0007308720471047004031D4C29D9
:100296004D2964290030F7000030F6000030F500E3
:1002A6000030F4008030F6047F30F7042408F704A9
:1002B6007708F3007608F2007508F1007408F0007C
:1002C600BF2A2B08031D6829692972290030F3000B
:1002D6000030F2000030F1000030F000BF2A2B0899
:1002E600F800F9017908FB002C087802FA00031CD3
:1002F600FB037A087F3EA5007B080318013E003EFB
:10030600A6007708A3007608A2007508A100740865
:10031600A0000030F7000030F6000030F500003095
:10032600F4000030AA000030A9000030A800003018
:10033600A700AC01EC292C080319A229A329C3297B
:100346000130F8000310A00DA10DA20DA30DF80BAE
:10035600A5290130F8000310F40DF50DF60DF70D83
:10036600F80BAE29AA1FB829B929BA297414013085
:10037600F8000310A70DA80DA90DAA0DF80BBC29AE
:1003860073082302031DD12972082202031DD129F5
:1003960071082102031DD12970082002031CD429EB
:1003A600D529EA292A177008A0027108031C710FC3
:1003B600DD29DE29A1027208031C720FE329E42954
:1003C600A2027308031C730FE929EA29A30201306C
:1003D600AC071A302C02031CF129F2299E292308A6
:1003E6002204210420040319F929FA29192A2714B9
:1003F600192A0130F8000310F40DF50DF60DF70D6E
:10040600F80BFE29AA1F082A092A0A2A74140130A1
:10041600F8000310A70DA80DA90DAA0DF80B0C2ABC
:10042600FF30A5070318A60AFF30A607F61F1C2AE9
:100436001D2AFC29AC01AA1F212A222A3E2AFF30A6
:100446002705F800FF302805F900FF302905FA00D6
:100456007F302A05FB007B087A04790478040319A7
:10046600352A362A392A0130AC003E2A741C3C2A29
:100476003D2A3E2A362A2C080319422A432A742A80
:100486000130F407003003180130F5070030031877
:100496000130F607003003180130F707771C542A9D
:1004A600552A742A7408F8007508F9007608FA00C7
:1004B6007708FB000130FC007B0DFB0CFA0CF90CF5
:1004C600F80CFC0B5F2A7B08F7007A08F60079081F
:1004D600F5007808F4000130A5070318A60A0030D5
:1004E600A6072608803AFF0080307F02031D7D2A7A
:1004F600FF302502031C802A812A8F2AFF308312AF
:100506000313A5000030A6000030F7000030F60007
:100516000030F5000030F400831203132608803AF9
:10052600FF0080307F02031D9A2A0130250203183E
:100536009D2A9E2AAB2A83120313A501A601003029
:10054600F7000030F6000030F5000030F400A4019A
:10055600831203132508AB002B1CB22AB32AB52A33
:10056600F617B72A7F30F6052B08F8000310780C2B
:10057600F7002408F7045B2908000A128A1580266A
:100586000A128A110A128A1593260A128A11003053
:100596000A128A15E3260A128A11700883120313B7
:1005A600BF007108C000C101C2014208A300410892
:1005B600A2004008A1003F08A00000300A128A11DC
:1005C6003A200A128A11831203132308CE00220846
:1005D600CD002108CC002008CB004030A3009C3081
:1005E600A2007A30A100E130A0004E08A7004D0815
:1005F600A6004C08A5004B08A4000A128A11BA24CA
:100606000A128A11831203132308CE002208CD0092
:100616002108CC002008CB004430F3007A30F200E9
:100626000030F1000030F0004E08F7004D08F600EB
:100636004C08F5004B08F4000A128A11F0200A1241
:100646008A11730883120313CE007208CD00710855
:10065600CC007008CB004E08A7004D08A6004C0839
:10066600A5004B08A4004130A300A030A200003032
:10067600A1000030A0000A128A11BA240A128A11B7
:10068600831203132308B8002208B7002108B60016
:100696002008B5000A128A158A270A128A118312BF
:1006A60003133608DA003508D900FF30F2000030AF
:1006B600F3005A08F1005908F0000A128A150227B9
:1006C6000A128A117108F9007008F8006430F60001
:1006D6000030F7000A128A1527270A128A117608AF
:1006E60083120313A0007708A1000030A11BFF307E
:1006F600A200A30001300A128A113A200A128A11B6
:10070600831203132308D6002208D5002108D4003B
:100716002008D3005608A7005508A6005408A500CF
:100726005308A4004030A3008030A2000030A1008E
:100736000030A0000A128A11BA240A128A11831202
:1007460003132308B8002208B7002108B6002008C2
:10075600B5000A128A158A270A128A118312031310
:100766003608C4003508C3004408F1004308F00009
:100776000A128A15AB260A128A1101300A128A1544
:10078600E3260A128A11700883120313BF00710848
:10079600C000C101C2014208A3004108A2004008EE
:1007A600A1003F08A00000300A128A113A200A125E
:1007B6008A11831203132308CA002208C9002108DC
:1007C600C8002008C7004030A3009C30A2007A3041
:1007D600A100E130A0004A08A7004908A600480881
:1007E600A5004708A4000A128A11BA240A128A111F
:1007F600831203132308CA002208C9002108C8006F
:100806002008C7004430F3007A30F2000030F100CF
:100816000030F0004A08F7004908F6004808F500DD
:100826004708F4000A128A11F0200A128A11730886
:1008360083120313CA007208C9007108C800700841
:10084600C7004A08A7004908A6004808A5004708A7
:10085600A4004130A300A030A2000030A100003067
:10086600A0000A128A11BA240A128A1183120313EB
:100876002308B8002208B7002108B6002008B500F2
:100886000A128A158A270A128A1183120313360856
:10089600D8003508D700FF30F2000030F3005808C2
:1008A600F1005708F0000A128A1502270A128A1167
:1008B6007108F9007008F8006430F6000030F7009F
:1008C6000A128A1527270A128A1176088312031339
:1008D600A0007708A1000030A11BFF30A200A300F2
:1008E60001300A128A113A200A128A11831203135E
:1008F6002308D2002208D1002108D0002008CF000A
:100906005208A7005108A6005008A5004F08A400E9
:100916004030A3008030A2000030A1000030A000CB
:100926000A128A11BA240A128A118312031323089F
:10093600B8002208B7002108B6002008B5000A1240
:100946008A158A270A128A11831203133608C600EB
:100956003508C5004608F1004508F0000A128A1558
:10096600C7260A128A11CA2A0A128A110028831275
:1009760003132308A8008030A8052308F900790787
:10098600AE00A21FC72CC82CC92C2E142E08031982
:10099600CD2CCE2CDD2C2E0A031DD22CD32CDB2CF9
:1009A6000030A3000030A2000030A1000030A000FB
:1009B600A217E52C0030A3000030A2000030A100F1
:1009C6000030A00027088039A8062708F900790713
:1009D600AD00A61FEF2CF02CF12C2D142D080319B9
:1009E600F52CF62C052D2D0A031DFA2CFB2C032DB8
:1009F6000030A7000030A6000030A5000030A4009B
:100A0600A6170D2D0030A7000030A6000030A50067
:100A16000030A4002D080319112D122D172D2E08B4
:100A2600031D162D172D202D0030A3000030A20027
:100A36000030A1000030A000FB2F2008F00026089F
:100A46000A128A1113200A128A11710883120313DB
:100A5600B4007008B3003308F900FA01FB01FC0189
:100A66007C08AC007B08AB007A08AA007908A900CC
:100A76003408F900FA01FB01FC017C08B2007B088E
:100A8600B1007A08B0007908AF002108F000250807
:100A96000A128A1113200A128A117108831203138B
:100AA600B4007008B3003308F900FA01FB01FC0139
:100AB6007908A9077A0803110318013E0319642D62
:100AC600AA077B0803110318013E03196B2DAB0718
:100AD6007C0803110318013E0319722DAC07340874
:100AE600F900FA01FB01FC017908AF077A08031146
:100AF6000318013E0319802DB0077B080311031864
:100B0600013E0319872DB1077C0803110318013E26
:100B160003198E2DB2072208F00024080A128A1142
:100B260013200A128A11710883120313B400700885
:100B3600B3003308F900FA01FB01FC017908A907A3
:100B46007A0803110318013E0319AA2DAA077B0888
:100B560003110318013E0319B12DAB077C080311DD
:100B66000318013E0319B82DAC073408F900FA0141
:100B7600FB01FC017908AF077A0803110318013E4F
:100B86000319C62DB0077B0803110318013E03198C
:100B9600CD2DB1077C0803110318013E0319D42D8E
:100BA600B2070830F9000310A90DAA0DAB0DAC0D64
:100BB600F90BD62D2108F00024080A128A111320F9
:100BC6000A128A11710883120313B4007008B30065
:100BD6003308F9003408FA00FB01FC017908A9077B
:100BE6007A0803110318013E0319FA2DAA077B0898
:100BF60003110318013E0319012EAB077C080311EC
:100C06000318013E0319082EAC072008F00025083A
:100C16000A128A1113200A128A1171088312031309
:100C2600B4007008B3003308F9003408FA00FB0179
:100C3600FC017908A9077A0803110318013E031974
:100C4600252EAA077B0803110318013E03192C2E33
:100C5600AB077C0803110318013E0319332EAC07BA
:100C66000830F9000310A90DAA0DAB0DAC0DF90B58
:100C7600352E2008F00024080A128A1113200A12C1
:100C86008A11710883120313B4007008B300330885
:100C9600F9003408FA00FB01FC017908A9077A0873
:100CA60003110318013E0319592EAA077B080311E5
:100CB6000318013E0319602EAB077C0803110318C5
:100CC600013E0319672EAC072108F00026080A1218
:100CD6008A1113200A128A11710883120313B400B1
:100CE6007008B3003308F9003408FA00FB01FC0170
:100CF6007908AF077A0803110318013E0319842EF9
:100D0600B0077B0803110318013E03198B2EB107A8
:100D16007C0803110318013E0319922EB20722081C
:100D2600F00025080A128A1113200A128A11710886
:100D360083120313B4007008B3003308F9003408B3
:100D4600FA00FB01FC017908AF077A0803110318C2
:100D5600013E0319AF2EB0077B0803110318013EAD
:100D66000319B62EB1077C0803110318013E0319B7
:100D7600BD2EB2072208F00026080A128A11132097
:100D86000A128A11710883120313B4007008B300A3
:100D96003308F9003408FA00FB01FC01083003109F
:100DA600F90DFA0DFB0DFC0DFF3E031DD22E790841
:100DB600AF077A0803110318013E0319E32EB007A3
:100DC6007B0803110318013E0319EA2EB1077C08BC
:100DD60003110318013E0319F12EB2072908F90081
:100DE6002A08FA002B08FB002C08FC001830031018
:100DF600FC0CFB0CFA0CF90CFF3E031DFA2E7908CD
:100E0600AF077A0803110318013E03190B2FB00729
:100E16007B0803110318013E0319122FB1077C0842
:100E260003110318013E0319192FB2070830F90000
:100E36000310A90DAA0DAB0DAC0DF90B1B2F2E0837
:100E46002D07F900FA01FA0D7908823EB3007A08F7
:100E56000318013EFF3EB4004D2F0130F900031088
:100E6600AF0DB00DB10DB20DF90B322FAC1F3C2FEB
:100E76003D2F3E2F2F140130F9000310A90DAA0DA6
:100E8600AB0DAC0DF90B402FFF30B3070318B40AB6
:100E9600FF30B407B11F502F512F302FAD01AC1FBB
:100EA600552F562F722FFF302905F900FF302A05DE
:100EB600FA00FF302B05FB007F302C05FC007C0878
:100EC6007B047A0479040319692F6A2F6D2F013088
:100ED600AD00722F2F1C702F712F722F6A2F2D08C5
:100EE6000319762F772FA82F0130AF07003003188C
:100EF6000130B007003003180130B1070030031885
:100F06000130B207321C882F892FA82F2F08F9002D
:100F16003008FA003108FB003208FC000130FD0001
:100F26007C0DFC0CFB0CFA0CF90CFD0B932F7C08CA
:100F3600B2007B08B1007A08B0007908AF00013032
:100F4600B3070318B40A0030B4073408803AFF0028
:100F560080307F02031DB12FFF303302031CB42FF4
:100F6600B52FC02F7F3083120313B2008030B1003B
:100F76000030B0000030AF00F12F831203133408A5
:100F8600803AFF0080307F02031DCB2F01303302F1
:100F96000318CE2FCF2FDB2F003083120313B2009E
:100FA6000030B1000030B0000030AF00A801F12FD2
:100FB600831203133308AE00FF30AF05FF30B005D0
:100FC6007F30B1050030B2052E1CEA2FEB2FEC2F37
:100FD600B1172E08F9000310790CB2002808B204E4
:100FE6003208A3003108A2003008A1002F08A00093
:0A0FF600080083010A128A11C02AC4
:101D00000330831603178800831603130514851404
:101D10009F171F129F12831203131F083F39803829
:101D20009F001F1408008316031307158714F9304A
:101D30009200831203131208FC3902389200121524
:101D40000C30970095010C309D009B018316031306
:101D500007118710080070080339F20004300310DF
:101D6000F20DFF3E031DAF2E831203131708CF3968
:101D7000720497007108F3007008F2000310F30C6E
:101D8000F20C0310F30CF20C7208950008007008B6
:101D90000339F20004300310F20DFF3E031DCB2E79
:101DA000831203131D08CF3972049D007108F300DC
:101DB0007008F2000310F30CF20C0310F30CF20C99
:101DC00072089B000800F3007308F200F20DF20D98
:101DD000831203131F087206C33972069F001A305C
:101DE000F200F20BF12E0000831203139F149F18D0
:101DF000FA2EFB2EF72E1E08F100831603131E0881
:101E0000F0000800F401F501701C072F082F0E2FB9
:101E10007208F4070318F50A7308F5070130031078
:101E2000F20DF30DFF3E031D0F2F01300310F10CD7
:101E3000F00CFF3E031D162F70087104031D212FA7
:101E4000222F042F7508F1007408F0000800FB0130
:101E5000F71F2B2F2C2F332FF609F709F60A03193A
:101E6000F70A0130FB00F91F362F372F3E2FF809F4
:101E7000F909F80A0319F90A0130FB06FC01FD0112
:101E8000760877040319452F462F7B2F0130FA007F
:101E9000522F01300310F60DF70DFF3E031D4A2FA0
:101EA0000130FA07F71F552F562F492F0130031025
:101EB000FC0DFD0DFF3E031D572F77087902031D12
:101EC000632F76087802031C662F672F6E2F760823
:101ED000F8027708031CF903F9027C14013003109F
:101EE000F70CF60CFF3E031D6F2F0130FA02031DA5
:101EF0007A2F7B2F562F7B0803197F2F802F852F5A
:101F0000FC09FD09FC0A0319FD0A7D08F7007C089D
:101F1000F6000800031083120313370D380DBE00BE
:101F20003E08031D942F952F9E2F0030B8000030DF
:101F3000B7000030B6000030B500FF2F3508B900FB
:101F40003608BA003708BB003808BC001F30031041
:101F5000BC0CBB0CBA0CB90CFF3E031DA72F3908F3
:101F6000BD00B717FF30B505FF30B605FF30B70528
:101F70000030B8059630BE02BE1FBF2FC02FD82F2D
:101F80003E08803A973E0318C62FC72FC82F952FBB
:101F900001300310B80CB70CB60CB50CFF3E031D96
:101FA000C92F0130BE07031DD62FD72FC82FEF2F03
:101FB00020303E02031CDD2FDE2FEA2F952F01304B
:101FC000B9000310B50DB60DB70DB80DB90BE12F63
:101FD0000130BE023E08031DEE2FEF2FDF2F3D081C
:101FE0000319F32FF42FFF2FB509B609B709B80964
:101FF000B50A0319B60A0319B70A0319B80A080083
:04400E00F22FFF3F4F
:00000001FF
