:060000000A128A11FC2F18
:100ED8000130831203139F008030831603139F0091
:100EE8000800831603130711C730920083120313F7
:100EF8009715171512149210121508000430710274
:100F080000300319700203188A2F8B2FA22F710843
:100F1800F3007008F2000310F30CF20C0310F30C4A
:100F2800F20C720883120313950070080339F2005B
:100F3800F20E17087206CF39720697000800F400FF
:100F4800C530831203139F057408F20002300310A2
:100F5800F20DFF3E031DAB2F0310720D9F040B30E3
:100F6800F3006230F200F20BB72FF30BB72F00003B
:100F7800831203139F149F18C22FC32FBF2F1E085D
:100F8800F100831603131E08F00008000A128A11E4
:100F98006C270A128A110A128A1175270A128A11F5
:100FA80000300A128A11A3270A128A117108F9005F
:100FB8007008F8007908FB007808FA007B08F1004F
:100FC8007A08F0000A128A1182270A128A1102305E
:100FD800F7000430F600BA30F500F50BF12FF60BE8
:100FE800F12FF70BF12F0000D42F0A128A110028D5
:080FF80083010A128A11CA2FBD
:04400E00E22FFF3F5F
:00000001FF
