:060000000A128A11FB2F19
:100E0C000130831203139F008030831603139F005D
:100E1C000800831603130711C730920083120313C3
:100E2C009715171512149210121508000430710240
:100E3C000030031970020318242F252F3C2F710842
:100E4C00F3007008F2000310F30CF20C0310F30C17
:100E5C00F20C720883120313950070080339F20028
:100E6C00F20E17087206CF39720697000800F201CD
:100E7C00F301831203138618442F452F472F01309B
:100E8C00F2073430F100F130F000F00B4B2FF10B86
:100E9C004B2F502F0130F30705307302031C572FD3
:100EAC00582F3F2F03307202031C5D2F5E2F602FD3
:100EBC000314612F03100800F400C53083120313D0
:100ECC009F057408F20002300310F20DFF3E031D63
:100EDC006A2F0310720D9F040B30F3006230F20086
:100EEC00F20B762FF30B762F0000831203139F1453
:100EFC009F18812F822F7E2F1E08F100831603135B
:100F0C001E08F000080083160317890183160313CB
:100F1C008801831203138801881408107C1083162F
:100F2C0003138113023095000A128A1106270A1244
:100F3C008A110A128A110F270A128A1183120313BB
:100F4C008618A92FAA2FD32F0A128A113D270A120D
:100F5C008A11031CB22FB32FD32F0130FC06C02FE4
:100F6C008312031388140810CA2F831203138810DA
:100F7C000814CA2F00307C180130003A0319B62F20
:100F8C00013A0319BB2FCA2F0A128A113D270A12E4
:100F9C008A110318D22FD32FCA2F00300A128A11AC
:100FAC0062270A128A117108F9007008F800790892
:100FBC00FB007808FA007B08F1007A08F0000A12AE
:100FCC008A111C270A128A110230F7000430F6002D
:100FDC00BA30F500F50BF02FF60BF02FF70BF02FC6
:100FEC000000A42F0A128A110028FC0183010A12A6
:040FFC008A11892F9E
:04400E00E22FFF3F5F
:00000001FF
