:100000000A128A11CD2FFF1B0D2883137F18831727
:100010000008840A0319FF0A080000308A00040857
:10002000840A820700344134443443343A3420345F
:100030002034203420342034203420342034203420
:1000400020342034003456346F346C3474346134CA
:100050006A3465343A342034203420342034203457
:1000600020342034003450346F34723463346534B7
:100070006E34743461346A3465343A342034203454
:10008000203420340034253475342E342534303473
:1000900033347534203456340034253475342534E3
:1000A000253400342534753400340800F401F5019A
:1000B0007008710403195D285E2893280130F6004A
:1000C0006A2801300310F00DF10DFF3E031D622878
:1000D0000130F607F11F6D286E28612801300310EA
:1000E000F40DF50DFF3E031D6F2871087302031D0B
:1000F0007B2870087202031C7E287F2886287008DF
:10010000F2027108031CF303F302741401300310AC
:10011000F10CF00CFF3E031D87280130F602031D91
:10012000922893286E287508F1007408F0000800E2
:10013000FA01FB01760884008313000884000A1288
:100140008A110D200A128A112A3A031DA828A9280B
:10015000D5287608840001308007770884000008DD
:10016000F80002308007780884000008FA00840A4A
:100170000008FB00E6287B08F1007A08F0000A304E
:10018000F2000030F3000A128A15F0260A128A11D2
:1001900079087007FA000030031801307107FB007E
:1001A00076088400013083138007760884000008F5
:1001B00084000A128A110D200A128A11D03EF90019
:1001C0000A307902031CE528E628BB287B08F700E3
:1001D0007A08F600080083120313681CF028F1283F
:1001E000FC282A08A0002808A1002908A2000A1259
:1001F0008A1515270A128A1183120313AC1F0129CD
:1002000002290429AB01AC01AD01AE011E29203049
:10021000F0000030F100831203132808F2002908CF
:10022000F3000A128A1109230A128A11013083127B
:100230000313AD070318AE0A0030AE072E08803A4C
:10024000FD002C08803A7D02031D28292B082D0271
:10025000031C2B292C290729831203136818312921
:1002600032293D292A08A0002808A1002908A20057
:100270000A128A1515270A128A110800F50083123E
:1002800003135F0884008317601C83130130F3009D
:1002900061080739013E4E290310F30DFF3E031D8F
:1002A0004C297308FF3A800575080A128A115024F8
:1002B0000A128A11831203135F0884008317601CDB
:1002C00083130130F300610CF400F40C740C073953
:1002D000013E6C290310F30DFF3E031D6A297308CC
:1002E00080041530F400C630F300F30B7529F40BCD
:1002F00075290000831203135F0884008317601CB4
:1003000083130130F300610CF400F40C740C073912
:10031000013E8C290310F30DFF3E031D8A2973084B
:10032000FF3A80050800003083120313AB00003051
:10033000AA000030A9000030A800230822042104EC
:1003400020040319A429A529F0290130AC00B32900
:100350000130FD000310A00DA10DA20DA30DFD0B9A
:10036000AA290130AC07A31FB629B729A829013053
:10037000FD000310A80DA90DAA0DAB0DFD0BB929A9
:1003800023082702031DCE2922082602031DCE2999
:1003900021082502031DCE2920082402031CD1298F
:1003A000D229E1292008A4022108031C210FA5025B
:1003B0002208031C220FA6022308031C230FA702F6
:1003C000281401300310A30CA20CA10CA00CFF3EBA
:1003D000031DE2290130AC02031DEF29F029B729E2
:1003E0002B08A3002A08A2002908A1002808A000C1
:1003F0000800013083120313B3006508B5006408D8
:10040000B4001F30B6000030B70083160313E001BC
:100410003F2AFF30B6070318B70AFF30B707360880
:10042000C13E84000A30F0000030F1003208F300D1
:100430003108F2000A128A1540270A128A11700840
:10044000303E8313800083120313B301FF30B407DF
:100450000318B50AFF30B5070A30F0000030F1008C
:100460003208F3003108F2000A128A1156200A12EB
:100470008A11710883120313B2007008B10083124D
:10048000360837040319452A462A642A31083204FB
:10049000031D4B2A4C2A092A3308031D502A512ACE
:1004A000092A3508803AFF0080307F02031D5A2A4E
:1004B00001303402031C5D2A5E2A642A831203136E
:1004C000E818632A642A092A831203132F08A80054
:1004D0003008A9003608C13EAA003508AC0034082F
:1004E000AB000A128A11EB200A128A110800F500EB
:1004F000831203135F0884008317601C8313013089
:10050000F30061080739013E872A0310F30DFF3E0F
:10051000031D852A730880047508F3000430031056
:10052000F30CFF3E031D8F2A73080F390A128A113C
:1005300050240A128A11831203135F088400831760
:10054000601C83130130F300610CF400F40C740C94
:100550000739013EAD2A0310F30DFF3E031DAB2A00
:10056000730880043530F300F30BB42A83120313AD
:100570005F0884008317601C83130130F300610C53
:10058000F400F40C740C0739013EC82A0310F30D73
:10059000FF3E031DC62A7308FF3A800575080F3910
:1005A0000A128A1150240A128A11831203135F0857
:1005B00084008317601C83130130F300610CF40086
:1005C000F40C740C0739013EE72A0310F30DFF3ECB
:1005D000031DE52A730880043530F300F30BEE2A7F
:1005E000831203135F0884008317601C8313013098
:1005F000F300610CF400F40C740C0739013E022B7B
:100600000310F30DFF3E031D002B7308FF3A800516
:1006100008007208730403190E2B0F2B152B720898
:100620007304031D142B152B1C2B70080A128A113E
:1006300055200A128A11A22B7208093EF400730891
:100640000318013E003EF500740884008317751CF2
:1006500083130008F600840A0008F7007608770480
:100660000319332B342B662B7208093EF4007308F0
:100670000318013E003EF500740884008317751CC2
:1006800083130008F600840A0008F7007208023E8F
:10069000F80073080318013E003EF9007808840052
:1006A0008317791C83130008FA00840A0008FB00F2
:1006B0007B08803AFC007708803A7C02031D622B9D
:1006C00076087A020318652B662BA22B7208840029
:1006D0008317731C83130008F400840A0008F500D4
:1006E0007208023EF60073080318013E003EF70050
:1006F000760884008317771C831300087407F900B9
:100700007508F8000318F80A801F872BF80378088B
:10071000FA007908840083177A1C8313700880001C
:100720007208023EF40073080318013E003EF50013
:10073000740884008317751C831301308007840AB2
:100740000318800A08005F30840076088313800055
:10075000840A77088000840A78088000840A79086F
:100760008000840A7A088000003083120313600638
:10077000031DBC2B05305F06031DBF2BC02BC42BF4
:10078000831603138501DF2B00306006031DCA2B7F
:1007900006305F06031DCD2BCE2BD22B8316031301
:1007A0008601DF2B00306006031DD82B07305F0663
:1007B000031DDB2BDC2B4F2C8316031387016830C2
:1007C000FC00E430FB00FB0BE32BFC0BE32B0000F5
:1007D00003300A128A113E210A128A111A30FC00D3
:1007E000F830FB00FB0BF22BFC0BF22B000003306C
:1007F0000A128A113E210A128A115430FC001C3060
:10080000FB00FB0B012CFC0B012C000003300A1237
:100810008A113E210A128A1102300A128A113E21DF
:100820000A128A1102300A128A113E210A128A1112
:1008300008300A128A113E210A128A1100300A1267
:100840008A113E210A128A1106300A128A113E21AB
:100850000A128A110830FD007D157D08FB00043066
:100860000310FB0CFF3E031D302C7B080F390A12CE
:100870008A113E210A128A117D080F390A128A1143
:100880003E210A128A1100300A128A113E210A12F0
:100890008A1101300A128A113E210A128A110800B7
:1008A000F200721C542C552C6A2C831203135F081F
:1008B00084008317601C83130130F000620807393D
:1008C000013E642C0310F00DFF3E031D622C7008E6
:1008D00080047F2C831203135F0884008317601C3D
:1008E00083130130F00062080739013E792C0310B0
:1008F000F00DFF3E031D772C7008FF3A8005F21CB7
:10090000822C832C992C5F0884008317601C83132E
:100910000130F000620CF100F10C710C0739013E5E
:10092000932C0310F00DFF3E031D912C70088004E2
:10093000AF2C5F0884008317601C83130130F00024
:10094000620CF100F10C710C0739013EA92C031067
:10095000F00DFF3E031DA72C7008FF3A8005721DA5
:10096000B22CB32CC62C5F0884008317601C831341
:100970000130F00063080739013EC02C0310F00D70
:10098000FF3E031DBE2C70088004D92C5F08840034
:100990008317601C83130130F00063080739013EA0
:1009A000D32C0310F00DFF3E031DD12C7008FF3A2D
:1009B0008005F21DDC2CDD2CF32C5F0884008317EE
:1009C000601C83130130F000630CF100F10C710C1A
:1009D0000739013EED2C0310F00DFF3E031DEB2CFB
:1009E00070088004092D5F0884008317601C83133E
:1009F0000130F000630CF100F10C710C0739013E7D
:100A0000032D0310F00DFF3E031D012D7008FF3A6A
:100A100080050800831203133A088400831300083A
:100A200084000A128A110D200A128A11253A031D28
:100A30001A2D1B2DC22D3A08840001308007E401D5
:100A4000E5010030E800FF30E600FF30E700C201BA
:100A50003F2DE8143A088400013080073F2D013013
:100A6000C2003F2D3A088400000884000A128A114F
:100A70000D200A128A11303A0319292D2F2D420810
:100A80000319432D442D322D3A08F6003B08F70098
:100A90000A128A1198200A128A1177088312031306
:100AA000E5007608E400E51F562D572D5D2D6814EE
:100AB000E409E509E40A0319E50A3A088400831306
:100AC0000008C300430884000A128A110D200A128C
:100AD0008A11753A031D6D2D6E2D9A2D3B088400E9
:100AE0000008BC00023080073C0884000008BE00FB
:100AF000840A0008BF003A0884004308013E8000D1
:100B00008F2D3808AF003908B0003F08B2003E080A
:100B1000B1000A128A11F9210A128A11DB2D430849
:100B200084000A128A110D200A128A11753A0319DB
:100B3000812D9A2D3A088400000884000A128A1137
:100B40000D200A128A11253A031DA72DA82DBA2DB2
:100B50003A088400013080072530F0000030F100B1
:100B60003808F2003908F3000A128A1109230A1220
:100B70008A11DB2D831203133A088400013083139A
:100B80008007DB2D3A088400000884000A128A11CD
:100B90000D200A128A11BC00BD013C08F0003D087E
:100BA000F1003808F2003908F3000A128A1109230B
:100BB0000A128A11BA2D08000A128A1589260A1209
:100BC0008A110130831603138500013086008701E6
:100BD0008312031385018601870183160313811392
:100BE0001514B03084008312031369088313800046
:100BF000840A6A088000840A6B088000840A6C08F2
:100C00008000840A6D088000763084008316031308
:100C100030088000840A31088000840A320880008D
:100C2000840A33088000840A340880000A128A117A
:100C3000A3230A128A1183160313C0010130BB00DB
:100C4000831203130618252E262E542E8316031303
:100C50003B03031D2C2E2D2E542ED0308312031354
:100C6000DD00C930DC00DC0B332EDD0B332E8312AC
:100C7000031306183C2E3D2E542E01308316031309
:100C8000C00703304002031C462E472E482EC001E9
:100C900000300A128A113E210A128A1101300A120A
:100CA0008A113E210A128A118312031306080139A0
:100CB00083160313BB000A128A1597260A128A119B
:100CC000710883160313BF007008BE0008300A12B3
:100CD0008A113E210A128A1100300A128A113E211D
:100CE0000A128A11831603134008031D782E792EE9
:100CF0001B2F1130F6008030F7000A128A15782772
:100D00000A128A1108300A128A113E210A128A1127
:100D100009300A128A113E210A128A110030831208
:100D20000313A3000030A2000330A100FF30A00095
:100D3000831603133E08F0003F08F100F201F301AF
:100D40000030F7000030F6001330F5008830F40072
:100D50000A128A15BA270A128A117308831203131A
:100D6000A7007208A6007108A5007008A4000A1266
:100D70008A1193210A128A11831203132108831600
:100D80000313BD0083120313200883160313BC0052
:100D9000E830F0000330F1003D08F3003C08F200B9
:100DA0000A128A1156200A128A1171088316031337
:100DB000B6007008B500E830F0000330F1003D08DF
:100DC000F3003C08F2000A128A1540270A128A1121
:100DD000710883160313B8007008B700A03083129F
:100DE0000313C9003130CA00831603133608831277
:100DF0000313CC0083160313350883120313CB00AF
:100E000083160313380883120313CE0083160313CB
:100E1000370883120313CD000A128A15CD260A1251
:100E20008A11A030F6000030F7000A128A157827E0
:100E30000A128A11BA2F4003031D1F2F202F872F5C
:100E40002130F6008030F7000A128A1578270A123E
:100E50008A1108300A128A113E210A128A110C30B6
:100E60000A128A113E210A128A11003083120313DA
:100E7000A3000030A2000330A100FF30A0008316C1
:100E800003133E08F0003F08F100F201F3010030C7
:100E9000F7000030F6000030F5006430F4000A126C
:100EA0008A15BA270A128A11730883120313A7003E
:100EB0007208A6007108A5007008A4000A128A1121
:100EC00093210A128A118312031321088316031334
:100ED000BA0083120313200883160313B900A0304D
:100EE00083120313C9003B30CA00831603133A0868
:100EF00083120313CC0083160313390883120313E0
:100F0000CB000A128A15CD260A128A11112F02303F
:100F10004006031D8C2F8D2FBA2F0130F600803034
:100F2000F7000A128A1578270A128A1108300A1265
:100F30008A113E210A128A1105300A128A113E21B5
:100F40000A128A11A03083120313C9004030CA006C
:100F5000831603133F0883120313CC008316031375
:100F60003E0883120313CB000A128A15CD260A12FB
:100F70008A11112F033083120313DE000830DD00C5
:100F80007630DC00DC0BC22FDD0BC22FDE0BC22F54
:100F90000000202E0A128A1100280A128A157C26C7
:100FA0000A128A11E9000A128A157D260A128A118C
:100FB000EA000A128A157E260A128A11EB000A122A
:100FC0008A157F260A128A11EC000A128A158026D9
:100FD0000A128A11ED008313C1308400E1300A1235
:100FE0008A1581260A128A115F30840069300A123C
:100FF0008A1581260A128A1183010A128A11DC2DB0
:101CF800073400341A342C343E3464008001840ADA
:101D08000406031900340406822E013083160317D3
:101D1800880089018130831203139F008030831665
:101D280003139F0008000630F200F20B992E000002
:101D3800831203139F149F18A22EA32E9F2E1E08F2
:101D4800F100831603131E08F00008008312031322
:101D58004608C800BC2E4408B8004508B9004830F9
:101D6800BA004708BB000A128A110A250A128A1506
:101D780083120313480884000A128A110D200A12DC
:101D88008A15003A031DC92ECA2EAF2EC401C501FB
:101D980008004B3083120313D0004908D1000030EB
:101DA800D200D301D401DA01DB015130C400003084
:101DB800C5004A08C6005030C7000A128A15AA266C
:101DC8000A128A158312031353084907CF004F08D4
:101DD8008400831380010800F401F501701CF52EBE
:101DE800F62EFC2E7208F4070318F50A7308F50797
:101DF80001300310F20DF30DFF3E031DFD2E0130DF
:101E08000310F10CF00CFF3E031D042F7008710441
:101E1800031D0F2F102FF22E7508F1007408F00023
:101E2800080083120313A601A701322F2508A30077
:101E3800A4012308F0002408F1002108F200220878
:101E4800F3000A128A1109230A128A150130831233
:101E58000313A6070318A70A0030A70726082007B8
:101E6800A3002308840083130008A5002508031D88
:101E78003E2F3F2F1A2F0800700871040319452FB1
:101E8800462F732F0130F400522F01300310F00D4C
:101E9800F10DFF3E031D4A2F0130F407F11F552FA6
:101EA800562F492F71087302031D5C2F70087202A8
:101EB800031C5F2F602F662F7008F2027108031C45
:101EC800F303F30201300310F10CF00CFF3E031D85
:101ED800672F0130F402031D722F732F562F7308DA
:101EE800F1007208F0000800FB01FC019D2F7B083F
:101EF8007607F9007708F8000318F80AFB1F852F02
:101F0800F8037808FA007A0883120313FF007908A7
:101F180084000A128A1103200A128A150A128A11E9
:101F280077220A128A150130FB070318FC0A0030D1
:101F3800FC077B087607F9007708F8000318F80A09
:101F4800FB1FA72FF8037808FA007A0883120313F7
:101F5800FF00790884000A128A1103200A128A15E0
:101F6800003A031DB82FB92F7B2F08000030FC0062
:101F78000030FB000030FA000030F900701CC52F5B
:101F8800C62FDD2F7408F907750803110318013EE1
:101F98000319CF2FFA07760803110318013E031916
:101FA800D62FFB07770803110318013E0319DD2F0D
:101FB800FC070130F8000310F40DF50DF60DF70DD0
:101FC800F80BDF2F01300310F30CF20CF10CF00CBE
:101FD800FF3E031DE72F7308720471047004031D8C
:101FE800F62FF72FC22F7C08F3007B08F2007A083F
:081FF800F1007908F000080077
:04400E00F22FFF3F4F
:00000001FF
