:060000000A128A110C280F
:10000800FE00030EF0000A08F1000A128A11C12E40
:100018000A128A110F28831603130A128A11C72796
:100028000A128A11D9000A128A11C8270A128A11DB
:10003800DA000A128A11C9270A128A11DB000A1289
:100048008A11CA270A128A11DC000A128A11CB27E0
:100058000A128A11DD008313A0308400D0300A12FE
:100068008A11BF270A128A1183120313E101E201E0
:10007800E301E401E501E601E701FB0183010A125E
:100088008A1146280A128A11B1270A128A11D03019
:10009800840083160313590883138000840A5A08BE
:1000A8008000840A5B088000840A5C088000840A57
:1000B8005D0880002030840050088000840A5108C0
:1000C8008000840A52088000840A53088000840A49
:1000D800540880000A128A110F210A128A1100306E
:1000E8000A128A1159250A128A1101300A128A1134
:1000F80059250A128A1108300A128A1159250A123A
:100108008A1100300A128A1159250A128A110B30F5
:10011800F8008030F9000A128A1101260A128A11A1
:100128000C300A128A1159250A128A1100300A1253
:100138008A1159250A128A111430F8008030F90002
:100148000A128A1101260A128A110C300A128A111F
:1001580059250A128A1100300A128A1159250A12E1
:100168008A113C30F2000030F30083120313670851
:10017800F5006608F4000A128A1147260A128A1145
:10018800730883160313D6007208D5003C30F200BA
:100198000030F300831203136708F5006608F400C3
:1001A8000A128A1189260A128A1173088316031300
:1001B800D8007208D700C63083120313CE0001306E
:1001C800CF0083160313560883120313D100831636
:1001D8000313550883120313D0008316031358081A
:1001E80083120313D30083160313570883120313D0
:1001F800D2000A128A116B270A128A11C630F80037
:100208000030F9000A128A1101260A128A11A92857
:100218000A128A110C286130840083120313200803
:1002280083138000840A21088000840A2208800041
:10023800840A23088000840A2408800000306206AB
:10024800031D282905306106031D2B292C29302977
:10025800831603138501672900306206031D3629BA
:1002680006306106031D39293A293E2983160313EE
:100278008601672900306206031D4429073061069C
:10028800031D472948294C29831603138701672929
:1002980000306206031D522908306106031D5529E6
:1002A80056295A29831603138801672900306206E4
:1002B800031D602909306106031D63296429D729B4
:1002C8008316031389016830F900E430F800F80B4D
:1002D8006B29F90B6B29000003300A128A11592582
:1002E8000A128A111A30F900F830F800F80B7A2946
:1002F800F90B7A29000003300A128A1159250A12CB
:100308008A115430F9001C30F800F80B8929F90BD0
:100318008929000003300A128A1159250A128A1104
:1003280002300A128A1159250A128A1102300A1259
:100338008A1159250A128A1108300A128A11592578
:100348000A128A1100300A128A1159250A128A11D2
:1003580006300A128A1159250A128A110830FA0041
:100368007A157A08F80004300310F80CFF3E031DD4
:10037800B82978080F390A128A1159250A128A11E0
:100388007A080F390A128A1159250A128A1100307F
:100398000A128A1159250A128A1101300A128A1181
:1003A80059250A128A110800F400741CDC29DD2979
:1003B800F22983120313610884008317621C8313D4
:1003C8000130F20064080739013EEC290310F20DF0
:1003D800FF3E031DEA2972088004072A83120313CB
:1003E800610884008317621C83130130F2006408DB
:1003F8000739013E012A0310F20DFF3E031DFF29B4
:100408007208FF3A8005F41C0A2A0B2A212A61087F
:1004180084008317621C83130130F200640CF3001C
:10042800F30C730C0739013E1B2A0310F20DFF3E33
:10043800031D192A72088004372A6108840083176B
:10044800621C83130130F200640CF300F30C730C8C
:100458000739013E312A0310F20DFF3E031D2F2AF2
:100468007208FF3A8005741D3A2A3B2A4E2A610811
:1004780084008317621C83130130F2006508073972
:10048800013E482A0310F20DFF3E031D462A72085A
:100498008004612A610884008317621C8313013079
:1004A800F20065080739013E5B2A0310F20DFF3E92
:1004B800031D592A7208FF3A8005F41D642A652A2B
:1004C8007B2A610884008317621C83130130F200C1
:1004D800650CF300F30C730C0739013E752A031001
:1004E800F20DFF3E031D732A72088004912A6108E9
:1004F80084008317621C83130130F200650CF3003B
:10050800F30C730C0739013E8B2A0310F20DFF3EE2
:10051800031D892A7208FF3A800508008312031315
:100528003F0884008313000884000A128A112727D1
:100538000A128A11253A031DA22AA32A302B3F0842
:1005480084000130800783160313A001A101003045
:10055800FB00FF30A200FF30A30083120313C70182
:10056800CB2AFB143F08840001308007CB2A0130D6
:10057800C700CB2A3F088400000884000A128A11A9
:1005880027270A128A11303A0319B52ABB2A4708C5
:100598000319CF2AD02ABE2A3F08F8004008F900DC
:1005A8000A128A1102250A128A117908831603137E
:1005B800A1007808A000A11FE22AE32AE92A7B14F7
:1005C800A009A109A00A0319A10A831203133F086D
:1005D800840083130008C800480884000A128A119E
:1005E80027270A128A11753A031DFB2AFC2A282B91
:1005F800400884000008C1000230800741088400D8
:100608000008C300840A0008C4003F0884004808A2
:10061800013E80001D2B3D08B4003E08B50044088B
:10062800B7004308B6000A128A117C240A128A11FC
:10063800492B480884000A128A1127270A128A11AE
:10064800753A03190F2B282B831203133F088400D4
:10065800013083138007492B3F0884000008840079
:100668000A128A1127270A128A11C100C2014108F9
:10067800F2004208F3003D08F4003E08F5000A12B3
:100688008A114A230A128A11282B08007408750453
:1006980003194F2B502B562B74087504031D552B2B
:1006A800562B5D2B72080A128A11CC270A128A115E
:1006B800E92B7408093E83120313A0007508031878
:1006C800013E003EA100200884008317211C8313EB
:1006D8000008A200840A0008A300220823040319C2
:1006E800762B772BA92B7408093EA00075080318F0
:1006F800013E003EA100200884008317211C8313BB
:100708000008A200840A0008A3007408023EA4009E
:1007180075080318013E003EA500240884008317CD
:10072800251C83130008A600840A0008A7002708D0
:10073800803AA8002308803A2802031DA52B220826
:1007480026020318A82BA92BE92B74088400831709
:10075800751C8313000883120313A000840A000881
:10076800A1007408023EA20075080318013E003E6D
:10077800A300220884008317231C83130008200782
:10078800A5002108A4000318A40A801FCC2BA403E9
:10079800831203132408A600250884008317261C47
:1007A8008313720880007408023EA00075080318BD
:1007B800013E003EA100200884008317211C8313FA
:1007C80001308007840A0318800A0800F7008312A2
:1007D8000313610884008317621C83130130F5003A
:1007E80063080739013EFA2B0310F50DFF3E031D80
:1007F800F82B750880047708F50004300310F50C11
:10080800FF3E031D022C75080F390A128A11D821E0
:100818000A128A1183120313610884008317621C69
:1008280083130130F500630CF600F60C760C0739DB
:10083800013E202C0310F50DFF3E031D1E2C7508EC
:1008480080043530F500F50B272C8312031361085B
:1008580084008317621C83130130F500630CF600D3
:10086800F60C760C0739013E3B2C0310F50DFF3EC4
:10087800031D392C7508FF3A800577080F390A12CD
:100888008A11D8210A128A1183120313610884007D
:100898008317621C83130130F500630CF600F60C15
:1008A800760C0739013E5A2C0310F50DFF3E031D47
:1008B800582C750880043530F500F50B612C83122F
:1008C8000313610884008317621C83130130F50049
:1008D800630CF600F60C760C0739013E752C0310F4
:1008E800F50DFF3E031D732C7508FF3A80050800BF
:1008F800013083120313B8008316031321088312EF
:100908000313BA0083160313200883120313B900D4
:100918001F30BB000030BC0083160313C501CC2C6C
:10092800FF3083120313BB070318BC0AFF30BC0750
:100938003B08A63E84000A30F2000030F300370876
:10094800F5003608F4000A128A1189260A128A115B
:100958007208303E8313800083120313B801FF30FE
:10096800B9070318BA0AFF30BA070A30F200003094
:10097800F3003708F5003608F4000A128A114726F2
:100988000A128A11730883120313B7007208B6009B
:1009980083123B083C040319D22CD32CEF2C3608C5
:1009A8003704031DD82CD92C942C3808031DDD2CB2
:1009B800DE2C942C3A08803AFF0080307F02031D19
:1009C800E72C01303902031CEA2CEB2CEF2CFB1826
:1009D800EE2CEF2C942C831203133408AC0035084A
:1009E800AD003B08A63EAE003A08B0003908AF009B
:1009F8000A128A11AE250A128A11080083120313FB
:100A0800A101A201780884008313000884000A1257
:100A18008A1127270A128A112A3A031D142D152D27
:100A2800432D780884000130800779088400000885
:100A3800FA00023080077A0884000008A100840ABE
:100A48000008A200542D2208F3002108F2000A3001
:100A5800F4000030F5000A128A1146270A128A119A
:100A68008312031320087207A10000300318013015
:100A78007307A20078088400013083138007780880
:100A88008400000884000A128A1127270A128A1192
:100A9800D03EA0000A302002031C532D542D272DD0
:100AA8002208F9002108F8000800F7008312031350
:100AB800610884008317621C83130130F500630802
:100AC8000739013E692D0310F50DFF3E031D672D03
:100AD8007508FF3A800577080A128A11D8210A1288
:100AE8008A1183120313610884008317621C83131D
:100AF8000130F500630CF600F60C760C0739013E60
:100B0800872D0310F50DFF3E031D852D7508800404
:100B18001530F600C630F500F50B902DF60B902D2C
:100B2800000083120313610884008317621C831377
:100B38000130F500630CF600F60C760C0739013E1F
:100B4800A72D0310F50DFF3E031DA52D7508FF3ACF
:100B5800800508007B1CB12DB22DBF2D8312031315
:100B68002E08F6002C08F7002D08F8000A128A1142
:100B7800F2260A128A1183120313B01FC42DC52D41
:100B8800C72DAF01B001B201B301E12D2030F20051
:100B98000030F300831203132C08F4002D08F5002D
:100BA8000A128A114A230A128A1101308312031386
:100BB800B2070318B30A0030B3073308803AB1000C
:100BC8003008803A3102031DEB2D2F083202031C36
:100BD800EE2DEF2DCA2D7B18F22DF32D002E83124A
:100BE80003132E08F6002C08F7002D08F8000A1247
:100BF8008A11F2260A128A11080083120313A3012C
:100C0800A4012A2E23087807A1007908A000031858
:100C1800A00AA31F102EA003831203132008A2000A
:100C28002208FF00210884000A128A111D270A12CF
:100C38008A110A128A11EA230A128A1101308312D0
:100C48000313A3070318A40A0030A407230878078E
:100C5800A1007908A0000318A00AA31F342EA0033E
:100C6800831203132008A2002208FF002108840031
:100C78000A128A111D270A128A11003A031D452EED
:100C8800462E062E0800F701F801720873040319AE
:100C98004E2E4F2E842E0130F6005B2E01300310AD
:100CA800F20DF30DFF3E031D532E0130F607F31F1F
:100CB8005E2E5F2E522E01300310F70DF80DFF3E09
:100CC800031D602E73087502031D6C2E72087402D2
:100CD800031C6F2E702E772E7208F4027308031C03
:100CE800F503F502771401300310F30CF20CFF3E04
:100CF800031D782E0130F602031D832E842E5F2EED
:100D08007808F3007708F2000800720873040319E2
:100D18008E2E8F2EBC2E0130F6009B2E0130031034
:100D2800F20DF30DFF3E031D932E0130F607F31F5E
:100D38009E2E9F2E922E73087502031DA52E7208F3
:100D48007402031CA82EA92EAF2E7208F402730891
:100D5800031CF503F50201300310F30CF20CFF3EFF
:100D6800031DB02E0130F602031DBB2EBC2E9F2E94
:100D78007508F3007408F2000800831203130C1CB2
:100D8800C62EC72EEB2E013083160313A4070318B3
:100D9800A50A0030A5070030250265300319240292
:100DA800031CD72ED82EE42E013083120313E60736
:100DB8000318E70A0030E70783160313A401A50107
:100DC800EC30831203138F0078308E000C107108FA
:100DD8008A00700E8300FE0E7E0E09008312031334
:100DE800AA01AB010F2F2908F900FA017908F200CE
:100DF8007A08F3007708F4007808F5000A128A11D7
:100E08004A230A128A11013083120313AA0703180E
:100E1800AB0A0030AB072A087607F9007908840086
:100E280083130008A9002908031D1B2F1C2FF72E68
:100E38000800FF1B272F83137F1883170008840AD5
:100E48000319FF0A080007308A000408840A820789
:100E5800003425343034323475343A34253430345F
:100E68003234753400345434693465346D34703434
:100E78006F343A3420340034303430343A34303437
:100E880030340034F601F701721C4B2F4C2F522FCF
:100E98007408F6070318F70A7508F70701300310F6
:100EA800F40DF50DFF3E031D532F01300310F30C15
:100EB800F20CFF3E031D5A2F72087304031D652FA1
:100EC800662F482F7708F3007608F20008005030A4
:100ED80083120313D5004E08D6000030D700D8017E
:100EE800D901DF01E0015630C9000030CA004F08BF
:100EF800CB005530CC000A128A118E270A128A11AB
:100F08008312031358084E07D4005408840083132F
:100F180080010800831203134B08CD00A02F490855
:100F2800BD004A08BE004D30BF004C08C0000A1280
:100F38008A1192220A128A11831203134D0884001F
:100F48000A128A1127270A128A11003A031DAD2FA7
:100F5800AE2F932FC901CA01080031308312031341
:100F68009000EC308F0078308E00831603130C1439
:100F78000B178B17080064008001840A0406031904
:100F880000340406C02F073400341A342C343E349D
:020F980008004F
:04400E00F22FFF3F4F
:00000001FF
