:060000000A128A11FC2F18
:100ED200831203130814F701F801772F702F712F73
:100EE2000130F7070318F80A0030F8077808803A4B
:100EF200F2007108803A7202031D812F7008770296
:100F0200031C842F852F6F2F831203130810F901FE
:100F1200FA01932F8C2F8D2F0130F9070318FA0A4B
:100F22000030FA072030F2004E30F30070087202EF
:100F3200F4007108031C710A7302F5007A08803A02
:100F4200F6007508803A7602031DA92F740879020B
:100F5200031CAC2FAD2F8B2F0800831603178801BB
:100F62008901831603130810831203130810E83053
:100F7200FB000330FC007C08F1007B08F0000A1241
:100F82008A1169270A128A111430FB070318FC0A16
:100F92000030FC077C08803AFF0087307F02031D87
:100FA200D42FD1307B02031CD72FD82FBC2FD030A7
:100FB200FB000730FC007C08F1007B08F0000A12FD
:100FC2008A1169270A128A11EC30FB070318FC0AFE
:100FD200FF30FC077C08803AFF0083307F02031D4C
:100FE200F42FE8307B020318F72FF82FDC2FB82FED
:0E0FF2000A128A11002883010A128A11AE2FFA
:02400E00E23F8F
:00000001FF
