:100000000A128A11D92F00308A000408840A820754
:1000100000342034483465346C346C346F3420340C
:1000200057346F3472346C346434213420340034E7
:10097A00073400341A342C343E34F701F801D82CE9
:10098A007708760784000A128A1103200A128A114C
:10099A000A128A11C4250A128A110130F7070318AC
:1009AA00F80A0030F8077708760784000A128A11D5
:1009BA0003200A128A11003A031DE42CE52CC52CE7
:1009CA000800F500831203132908840083172A1CE0
:1009DA0083130130F3002B080739013EF62C03106C
:1009EA00F30DFF3E031DF42C7308FF3A80057508CA
:1009FA000A128A1156260A128A1183120313290827
:100A0A00840083172A1C83130130F3002B0CF40093
:100A1A00F40C740C0739013E142D0310F30DFF3E3C
:100A2A00031D122D730880041530F400C630F3003C
:100A3A00F30B1D2DF40B1D2D00008312031329083F
:100A4A00840083172A1C83130130F3002B0CF40053
:100A5A00F40C740C0739013E342D0310F30DFF3EDC
:100A6A00031D322D7308FF3A8005080023308400E5
:100A7A00831203132E0883138000840A2F08800030
:100A8A00840A30088000840A31088000840A320807
:100A9A0080007630840023088000840A24088000BD
:100AAA00840A25088000840A26088000840A270808
:100ABA0080000A128A1110270A128A1100300A12BB
:100ACA008A11E6240A128A1101300A128A11E624CE
:100ADA000A128A1108300A128A11E6240A128A11A5
:100AEA0000300A128A11E6240A128A110130F6002D
:100AFA000A128A11C2240A128A110C300A128A11A5
:100B0A00E6240A128A1100300A128A11E6240A120D
:100B1A008A11413083120313A80028080A128A1185
:100B2A00C4250A128A11053083120313A2000F305A
:100B3A00A100F030A000A00BA02DA10BA02DA20BAC
:100B4A00A02D0000013083120313A8075130280298
:100B5A00031CB02DB12D922D153083120313A20060
:100B6A004B30A100BD30A000A00BB92DA10BB92DAF
:100B7A00A20BB92DC02D632D0A128A110028F50087
:100B8A00831203132908840083172A1C8313013054
:100B9A00F3002B080739013ED42D0310F30DFF3E55
:100BAA00031DD22D730880047508F3000430031066
:100BBA00F30CFF3E031DDC2D73080F390A128A114C
:100BCA0056260A128A1183120313290884008317EE
:100BDA002A1C83130130F3002B0CF400F40C740C60
:100BEA000739013EFA2D0310F30DFF3E031DF82DC0
:100BFA00730880043530F300F30B012E83120313BC
:100C0A002908840083172A1C83130130F3002B0C54
:100C1A00F400F40C740C0739013E152E0310F30D81
:100C2A00FF3E031D132E7308FF3A800575080F391E
:100C3A000A128A1156260A128A11831203132908E4
:100C4A00840083172A1C83130130F3002B0CF40051
:100C5A00F40C740C0739013E342E0310F30DFF3ED9
:100C6A00031D322E730880043530F300F30B3B2E3C
:100C7A00831203132908840083172A1C8313013063
:100C8A00F3002B0CF400F40C740C0739013E4F2EC0
:100C9A000310F30DFF3E031D4D2E7308FF3A800526
:100CAA000800F200721C5A2E5B2E702E8312031358
:100CBA002908840083172A1C83130130F0002C08AA
:100CCA000739013E6A2E0310F00DFF3E031D682E00
:100CDA0070088004852E8312031329088400831761
:100CEA002A1C83130130F0002C080739013E7F2E9D
:100CFA000310F00DFF3E031D7D2E7008FF3A80059C
:100D0A00F21C882E892E9F2E2908840083172A1CFC
:100D1A0083130130F0002C0CF100F10C710C07392F
:100D2A00013E992E0310F00DFF3E031D972E700809
:100D3A008004B52E2908840083172A1C83130130E6
:100D4A00F0002C0CF100F10C710C0739013EAF2EAA
:100D5A000310F00DFF3E031DAD2E7008FF3A80050B
:100D6A00721DB82EB92ECC2E2908840083172A1C8E
:100D7A0083130130F0002D080739013EC62E0310F7
:100D8A00F00DFF3E031DC42E70088004DF2E2908D3
:100D9A00840083172A1C83130130F0002D080739B9
:100DAA00013ED92E0310F00DFF3E031DD72E700809
:100DBA00FF3A8005F21DE22EE32EF92E290884005F
:100DCA0083172A1C83130130F0002D0CF100F10C5B
:100DDA00710C0739013EF32E0310F00DFF3E031D7F
:100DEA00F12E700880040F2F2908840083172A1C0B
:100DFA0083130130F0002D0CF100F10C710C07394E
:100E0A00013E092F0310F00DFF3E031D072F700846
:100E1A00FF3A800508002930840076088313800091
:100E2A00840A77088000840A78088000840A79088E
:100E3A008000840A7A0880000030831203132A068D
:100E4A00031D292F05302906031D2C2F2D2F312F85
:100E5A00831603138501682F00302A06031D372FD6
:100E6A0006302906031D3A2F3B2F3F2F8316031303
:100E7A008601682F00302A06031D452F07302906F0
:100E8A00031D482F492F4D2F831603138701682FFF
:100E9A0000302A06031D532F08302906031D562F3A
:100EAA00572F5B2F831603138801682F00302A06F9
:100EBA00031D612F09302906031D642F652FD82FC2
:100ECA008316031389016830FC00E430FB00FB0B36
:100EDA006C2FFC0B6C2F000003300A128A11E624D7
:100EEA000A128A111A30FC00F830FB00FB0B7B2F28
:100EFA00FC0B7B2F000003300A128A11E6240A1227
:100F0A008A115430FC001C30FB00FB0B8A2FFC0BAF
:100F1A008A2F000003300A128A11E6240A128A1163
:100F2A0002300A128A11E6240A128A1102300A12BF
:100F3A008A11E6240A128A1108300A128A11E62452
:100F4A000A128A1100300A128A11E6240A128A1138
:100F5A0006300A128A11E6240A128A110830FD00A4
:100F6A007D157D08FB0004300310FB0CFF3E031DBA
:100F7A00B92F7B080F390A128A11E6240A128A113C
:100F8A007D080F390A128A11E6240A128A110030E2
:100F9A000A128A11E6240A128A1101300A128A11E7
:100FAA00E6240A128A1108000A128A11BD240A12BA
:100FBA008A11AE000A128A11BE240A128A11AF00DF
:100FCA000A128A11BF240A128A11B0000A128A115F
:100FDA00C0240A128A11B1000A128A11C1240A1203
:100FEA008A11B200A901AA01AB01AC01AD018301CA
:060FFA000A128A113B2DD2
:04400E00F22FFF3F4F
:00000001FF
