:100000000A128A11CD2FFF1B0D2883137F18831727
:100010000008840A0319FF0A080000308A00040857
:10002000840A820700344C34653463347434753484
:10003000723461342034313420342034203420347C
:1000400020342034203400344C3465346334743428
:100050007534723461342034323420342034203406
:100060002034203420342034003450346F3472343F
:1000700063343A342034253475342034253425341F
:1000800020342034203420342034003456346F346B
:100090006C3474343A342034253475342E34253499
:1000A0003034333475342034563420340034413401
:1000B000443443343A3420342534753420342034E5
:1000C0002034203420342034203420340034493487
:1000D0006E3469346334693461346E3464346F343B
:1000E0002E342E342E3400340800073400341A34F1
:1000F0002C343E340030FC000030FB000030FA00AD
:100100000030F900701C852886289D287408F9079E
:10011000750803110318013E03198F28FA077608A2
:1001200003110318013E03199628FB0777080311F2
:100130000318013E03199D28FC070130F800031045
:10014000F40DF50DF60DF70DF80B9F280130031097
:10015000F30CF20CF10CF00CFF3E031DA728730802
:10016000720471047004031DB628B72882287C0825
:10017000F3007B08F2007A08F1007908F00008002B
:10018000F500831203135F0884008317601C831338
:100190000130F30061080739013ED0280310F30D48
:1001A000FF3E031DCE287308FF3A800575080A122A
:1001B0008A11D2230A128A11831203135F08840062
:1001C0008317601C83130130F300610CF400F40CFE
:1001D000740C0739013EEE280310F30DFF3E031D9A
:1001E000EC28730880041530F400C630F300F30BDC
:1001F000F728F40BF7280000831203135F0884002C
:100200008317601C83130130F300610CF400F40CBD
:10021000740C0739013E0E290310F30DFF3E031D38
:100220000C297308FF3A800508000030831203137D
:10023000AB000030AA000030A9000030A80023085D
:1002400022042104200403192629272972290130B8
:10025000AC0035290130FD000310A00DA10DA20D49
:10026000A30DFD0B2C290130AC07A31F3829392918
:100270002A290130FD000310A80DA90DAA0DAB0D10
:10028000FD0B3B2923082702031D502922082602C3
:10029000031D502921082502031D5029200824028E
:1002A000031C5329542963292008A4022108031C94
:1002B000210FA5022208031C220FA6022308031CFB
:1002C000230FA702281401300310A30CA20CA10CC9
:1002D000A00CFF3E031D64290130AC02031D7129EF
:1002E000722939292B08A3002A08A2002908A10095
:1002F0002808A0000800013083120313B30065082A
:10030000B5006408B4001F30B6000030B700831693
:100310000313E201C129FF30B6070318B70AFF3003
:10032000B7073608C33E84000A30F0000030F10001
:100330003208F3003108F2000A128A159E260A12CA
:100340008A117008303E8313800083120313B301B7
:10035000FF30B4070318B50AFF30B5070A30F000C4
:100360000030F1003208F3003108F2000A128A1559
:1003700018270A128A11710883120313B200700839
:10038000B1008312360837040319C729C829E629A2
:1003900031083204031DCD29CE298B293308031DD2
:1003A000D229D3298B293508803AFF0080307F027B
:1003B000031DDC2901303402031CDF29E029E62972
:1003C00083120313E818E529E6298B298312031306
:1003D0002F08A8003008A9003608C33EAA00350837
:1003E000AC003408AB000A128A15AD270A128A1134
:1003F0000800F500831203135F0884008317601C54
:1004000083130130F30061080739013E092A031004
:10041000F30DFF3E031D072A730880047508F300DF
:1004200004300310F30CFF3E031D112A73080F392B
:100430000A128A11D2230A128A11831203135F0847
:1004400084008317601C83130130F300610CF400F7
:10045000F40C740C0739013E2F2A0310F30DFF3EF4
:10046000031D2D2A730880043530F300F30B362A60
:10047000831203135F0884008317601C8313013009
:10048000F300610CF400F40C740C0739013E4A2AA5
:100490000310F30DFF3E031D482A7308FF3A800541
:1004A00075080F390A128A11D2230A128A1183128F
:1004B00003135F0884008317601C83130130F3006B
:1004C000610CF400F40C740C0739013E692A031026
:1004D000F30DFF3E031D672A730880043530F300D7
:1004E000F30B702A831203135F0884008317601CC8
:1004F00083130130F300610CF400F40C740C073921
:10050000013E842A0310F30DFF3E031D822A730867
:10051000FF3A80050800720873040319902A912A93
:10052000972A72087304031D962A972A9E2A700838
:100530000A128A1174200A128A11242B7208093EA9
:10054000F40073080318013E003EF50074088400AF
:100550008317751C83130008F600840A0008F7004F
:10056000760877040319B52AB62AE82A7208093EE4
:10057000F40073080318013E003EF500740884007F
:100580008317751C83130008F600840A0008F7001F
:100590007208023EF80073080318013E003EF9009D
:1005A000780884008317791C83130008FA00840AF2
:1005B0000008FB007B08803AFC007708803A7C0248
:1005C000031DE42A76087A020318E72AE82A242B76
:1005D000720884008317731C83130008F400840AD4
:1005E0000008F5007208023EF60073080318013E89
:1005F000003EF700760884008317771C83130008F9
:100600007407F9007508F8000318F80A801F092B11
:10061000F8037808FA007908840083177A1C83139A
:10062000700880007208023EF40073080318013E4F
:10063000003EF500740884008317751C8313013095
:100640008007840A0318800A08005F308400760857
:1006500083138000840A77088000840A7808800069
:10066000840A79088000840A7A08800000308312A6
:1006700003136006031D3E2B05305F06031D412B4F
:10068000422B462B831603138501612B0030600635
:10069000031D4C2B06305F06031D4F2B502B542B94
:1006A000831603138601612B00306006031D5A2B4D
:1006B00007305F06031D5D2B5E2BD12B83160313C2
:1006C00087016830FC00E430FB00FB0B652BFC0B62
:1006D000652B000003300A128A11C0200A128A1109
:1006E0001A30FC00F830FB00FB0B742BFC0B742B56
:1006F000000003300A128A11C0200A128A115430F5
:10070000FC001C30FB00FB0B832BFC0B832B00003D
:1007100003300A128A11C0200A128A1102300A120A
:100720008A11C0200A128A1102300A128A11C020CE
:100730000A128A1108300A128A11C0200A128A117C
:1007400000300A128A11C0200A128A1106300A12D9
:100750008A11C0200A128A110830FD007D157D081B
:10076000FB0004300310FB0CFF3E031DB22B7B0883
:100770000F390A128A11C0200A128A117D080F3916
:100780000A128A11C0200A128A1100300A128A1134
:10079000C0200A128A1101300A128A11C0200A12DE
:1007A0008A110800F200721CD62BD72BEC2B831277
:1007B00003135F0884008317601C83130130F0006B
:1007C00062080739013EE62B0310F00DFF3E031DC2
:1007D000E42B70088004012C831203135F0884004B
:1007E0008317601C83130130F00062080739013E53
:1007F000FB2B0310F00DFF3E031DF92B7008FF3A91
:100800008005F21C042C052C1B2C5F088400831728
:10081000601C83130130F000620CF100F10C710CCC
:100820000739013E152C0310F00DFF3E031D132C5C
:1008300070088004312C5F0884008317601C8313C8
:100840000130F000620CF100F10C710C0739013E2F
:100850002B2C0310F00DFF3E031D292C7008FF3ACE
:100860008005721D342C352C482C5F0884008317BA
:10087000601C83130130F00063080739013E422CED
:100880000310F00DFF3E031D402C700880045B2C0C
:100890005F0884008317601C83130130F000630835
:1008A0000739013E552C0310F00DFF3E031D532C5C
:1008B0007008FF3A8005F21D5E2C5F2C752C5F08D6
:1008C00084008317601C83130130F000630CF10077
:1008D000F10C710C0739013E6F2C0310F00DFF3E37
:1008E000031D6D2C700880048B2C5F088400831717
:1008F000601C83130130F000630CF100F10C710CEB
:100900000739013E852C0310F00DFF3E031D832C9B
:100910007008FF3A80050800831203133A08840028
:100920008313000884000A128A110D200A128A110A
:10093000253A031D9C2C9D2C442D3A08840001303F
:100940008007E401E5010030E800FF30E600FF30F9
:10095000E700C201C12CE8143A0884000130800786
:10096000C12C0130C200C12C3A0884000008840068
:100970000A128A110D200A128A11303A0319AB2C7F
:10098000B12C42080319C52CC62CB42C3A08F60029
:100990003B08F7000A128A155A270A128A117708AB
:1009A00083120313E5007608E400E51FD82CD92C48
:1009B000DF2C6814E409E509E40A0319E50A3A089A
:1009C000840083130008C300430884000A128A11BC
:1009D0000D200A128A11753A031DEF2CF02C1C2DE4
:1009E0003B0884000008FF00023080077F08840075
:1009F0000008BE00840A0008BF003A0884004308CB
:100A0000013E8000112D3808AF003908B0003F08C2
:100A1000B2003E08B1000A128A117B210A128A1123
:100A20005D2D430884000A128A110D200A128A11D2
:100A3000753A0319032D1C2D3A0884000008840020
:100A40000A128A110D200A128A11253A031D292D36
:100A50002A2D3C2D3A088400013080072530F00013
:100A60000030F1003808F2003908F3000A128A1148
:100A70008B220A128A115D2D831203133A08840017
:100A80000130831380075D2D3A088400000884003C
:100A90000A128A110D200A128A11BC00BD013C08FD
:100AA000F0003D08F1003808F2003908F3000A129E
:100AB0008A118B220A128A113C2D08008316031317
:100AC000C101C2010130BB000130BC0003308316FC
:100AD0000317880089010330831603138500033050
:100AE000860087018312031385018601870183161F
:100AF00003138113033095000A128A15D3250A12B5
:100B00008A11B030840083120313690883138000B4
:100B1000840A6A088000840A6B088000840A6C08D2
:100B20008000840A6D0880007630840083160313E9
:100B300030088000840A31088000840A320880006E
:100B4000840A33088000840A340880000A128A115B
:100B500025230A128A1100300A128A11C0200A12B3
:100B60008A1101300A128A11C0200A128A11083033
:100B70000A128A11C0200A128A1100300A128A1140
:100B8000C0200A128A115530F6008030F7000A1290
:100B90008A15D6260A128A11113083120313DE0039
:100BA0003C30DD00CA30DC00DC0BD42DDD0BD42D55
:100BB000DE0BD42D000000300A128A11C0200A1268
:100BC0008A1101300A128A11C0200A128A11831276
:100BD00003130618EC2DED2D202E831603133B0373
:100BE000031DF32DF42D202E023083120313DE009B
:100BF0000430DD00B930DC00DC0BFC2DDD0BFC2DFE
:100C0000DE0BFC2D032E831203130618082E092E6B
:100C1000202E013083160313C10703304102031C49
:100C2000122E132E142EC10100300A128A11C02078
:100C30000A128A1101300A128A11C0200A128A117E
:100C40000030831203130618013083160313BB0010
:100C50008312031386182D2E2E2E612E8316031356
:100C60003C03031D342E352E612E023083120313F4
:100C7000DE000430DD00B930DC00DC0B3D2EDD0B86
:100C80003D2EDE0B3D2E442E831203138618492E73
:100C90004A2E612E013083160313C207023042022E
:100CA000031C532E542E552EC20100300A128A11F5
:100CB000C0200A128A1101300A128A11C0200A12B9
:100CC0008A11003083120313861801308316031330
:100CD000BC0042080A128A154C260A128A117108B1
:100CE00083160313C0007008BF0000308312031383
:100CF000A3000030A2000330A100FF30A000831643
:100D000003133F08F0004008F100F201F301003046
:100D1000F7000030F6001330F5008830F4000A12B6
:100D20008A117A200A128A11730883120313A7000A
:100D30007208A6007108A5007008A4000A128A11A2
:100D400015210A128A118312031321088316031333
:100D5000BE0083120313200883160313BD00E8307E
:100D6000F0000330F1003E08F3003D08F2000A12E3
:100D70008A1518270A128A11710883160313B60000
:100D80007008B500E830F0000330F1003E08F300D1
:100D90003D08F2000A128A159E260A128A1171086D
:100DA00083160313B8007008B700003083120313D2
:100DB000A3000030A2000330A100FF30A000831682
:100DC00003133F08F0004008F100F201F301003086
:100DD000F7000030F6000030F5006430F4000A122D
:100DE0008A117A200A128A11730883120313A7004A
:100DF0007208A6007108A5007008A4000A128A11E2
:100E000015210A128A118312031321088316031372
:100E1000BA0083120313200883160313B9000830A5
:100E20000A128A11C0200A128A1100300A128A118D
:100E3000C0200A128A11831603134208031D212FB2
:100E4000222F2C2F0130F6008030F7000A128A156D
:100E5000D6260A128A11352F1230F6008030F7009C
:100E60000A128A15D6260A128A110C300A128A1121
:100E7000C0200A128A1100300A128A11C0200A12F8
:100E80008A11831603134108031D472F482F752F1E
:100E9000A03083120313C9003430CA008316031331
:100EA000360883120313CC0083160313350883120C
:100EB0000313CB0083160313380883120313CE00E9
:100EC00083160313370883120313CD000A128A1501
:100ED00004260A128A11A030F6000030F7000A1228
:100EE0008A15D6260A128A11BB2F4103031D792FBA
:100EF0007A2F9B2FA03083120313C9002330CA001E
:100F0000831603133A0883120313CC0083160313CA
:100F1000390883120313CB000A128A1504260A1219
:100F20008A11A030F6000030F7000A128A15D62682
:100F30000A128A11BB2FA03083120313C900453057
:100F4000CA0083160313400883120313CC008316D0
:100F500003133F0883120313CB000A128A150426D9
:100F60000A128A11A030F6000030F7000A128A1522
:100F7000D6260A128A11043083120313DE000C30C5
:100F8000DD003330DC00DC0BC32FDD0BC32FDE0BA9
:100F9000C32FE72D0A128A1100280A128A11752020
:100FA0000A128A11E9000A128A1176200A128A119D
:100FB000EA000A128A1177200A128A11EB000A123B
:100FC0008A1178200A128A11EC000A128A117920FB
:100FD0000A128A11ED008313C3308400E3300A1231
:100FE0008A15CB250A128A115F30840069300A12F3
:100FF0008A15CB250A128A1183010A128A115E2DE5
:101B960064008001840A0406031900340406CC2D6F
:101BA60003308316031788008901803083160313D8
:101BB6009F000130831203139F0008008312031352
:101BC6004608C800F32D4408B8004508B900483057
:101BD600BA004708BB000A128A118C240A128A1519
:101BE60083120313480884000A128A110D200A1270
:101BF6008A15003A031D002E012EE62DC401C501EB
:101C060008004B3083120313D0004908D10000307E
:101C1600D200D301D401DA01DB015130C400003017
:101C2600C5004A08C6005030C7000A128A15E125C9
:101C36000A128A158312031353084907CF004F0867
:101C46008400831380010800F401F501701C2C2E1A
:101C56002D2E332E7208F4070318F50A7308F507BC
:101C660001300310F20DF30DFF3E031D342E01303B
:101C76000310F10CF00CFF3E031D3B2E700871049F
:101C8600031D462E472E292E7508F1007408F00014
:101C96000800F400C330831203139F057408F20092
:101CA60001300310F20DFF3E031D542E0310720D7A
:101CB6009F040B30F3006230F200F20B602EF30B40
:101CC600602E0000831203139F149F186B2E6C2E38
:101CD600682E1E08F100831603131E08F000080084
:101CE60083120313A601A701902E2508A300A401C1
:101CF6002308F0002408F1002108F2002208F3006E
:101D06000A128A118B220A128A15013083120313D2
:101D1600A6070318A70A0030A70726082007A3006E
:101D26002308840083130008A5002508031D9C2EA4
:101D36009D2E782E0800700871040319A32EA42E78
:101D4600D12E0130F400B02E01300310F00DF10D4C
:101D5600FF3E031DA82E0130F407F11FB32EB42E4B
:101D6600A72E71087302031DBA2E70087202031C97
:101D7600BD2EBE2EC42E7008F2027108031CF3039A
:101D8600F30201300310F10CF00CFF3E031DC52ECB
:101D96000130F402031DD02ED12EB42E7308F100AB
:101DA6007208F0000800FB01FC01FB2E7B08760799
:101DB600F9007708F8000318F80AFB1FE32EF8036A
:101DC6007808FA007A0883120313FF007908840062
:101DD6000A128A1103200A128A150A128A11F92197
:101DE6000A128A150130FB070318FC0A0030FC07AB
:101DF6007B087607F9007708F8000318F80AFB1F36
:101E0600052FF8037808FA007A0883120313FF00F7
:101E1600790884000A128A1103200A128A15003AE8
:101E2600031D162F172FD92E0800F401F50170088F
:101E3600710403191F2F202F552F0130F6002C2F68
:101E460001300310F00DF10DFF3E031D242F01306C
:101E5600F607F11F2F2F302F232F01300310F40D1B
:101E6600F50DFF3E031D312F71087302031D3D2F33
:101E760070087202031C402F412F482F7008F2028F
:101E86007108031CF303F302741401300310F10C00
:101E9600F00CFF3E031D492F0130F602031D542F9F
:101EA600552F302F7508F1007408F0000800F9016D
:101EB600FA01760884008313000884000A128A1146
:101EC6000D200A128A152A3A031D6A2F6B2F972FA7
:101ED6007608840001308007770884000008FF0038
:101EE600023080077F0884000008F900840A000891
:101EF600FA00A82F7A08F1007908F0000A30F200FB
:101F06000030F3000A128A1527260A128A15780865
:101F16007007F9000030031801307107FA007608DF
:101F2600840001308313800776088400000884004B
:101F36000A128A110D200A128A15D03EF8000A30BC
:101F46007802031CA72FA82F7D2F7A08F70079089F
:101F5600F600080083120313681CB22FB32FBE2F9E
:101F66002A08A0002808A1002908A2000A128A153A
:101F760073260A128A1583120313AC1FC32FC42FAC
:101F8600C62FAB01AC01AD01AE01E02F2030F00051
:101F96000030F100831203132808F2002908F30029
:101FA6000A128A118B220A128A1501308312031330
:101FB600AD070318AE0A0030AE072E08803AFD00C2
:101FC6002C08803A7D02031DEA2F2B082D02031CE4
:101FD600ED2FEE2FC92F831203136818F32FF42F5A
:101FE600FF2F2A08A0002808A1002908A2000A122B
:0A1FF6008A1573260A128A150800E6
:04400E00F22FFF3F4F
:00000001FF
