:060000000A128A110C280F
:10000800FE00030EF0000A08F1000A128A11082AFD
:100018000A128A110F2883133A30FD000230FE00BD
:100028003130FF002F3084000A128A1122220A126E
:100038008A11BA01BB0183010A128A112328831687
:10004800031788018901831603138801870101308A
:10005800860083120313880187018316031301089E
:100068007F39810001138B100B168B170A3083120E
:10007800A0000030A1003B08A3003A08A2000A1221
:100088008A11AF210A128A11831203132108A600CC
:100098002008A5000A30A0000030A1000A30F200B4
:1000A8000030F3003B08F5003A08F4000A128A1100
:1000B8004C210A128A11730883120313A3007208D1
:1000C800A2000A128A11AF210A128A11831203139D
:1000D8002108A8002008A7000A30A0000030A100CD
:1000E8006430F2000030F3003B08F5003A08F400F1
:1000F8000A128A114C210A128A11730883120313F7
:10010800A3007208A2000A128A11AF210A128A11EA
:10011800831203132108AA002008A9000A30A000AE
:100128000030A100E830F2000330F3003B08F5008E
:100138003A08F4000A128A114C210A128A1173082B
:1001480083120313A3007208A2000A128A11AF21B6
:100158000A128A11831203132108AC002008AB008D
:10016800AD01AE01F7308312031387002B082F3E31
:100178008400831300088800413083120313A4000D
:10018800A40BC428C728FB3083120313870029084F
:100198002F3E840083130008880041308312031324
:1001A800A400A40BD528D828FD3083120313870098
:1001B80027082F3E840083130008880041308312EB
:1001C8000313A400A40BE628E928FE3083120313C6
:1001D800870025082F3E84008313000888004130DB
:1001E80083120313A400A40BF728FA280130831202
:1001F8000313AD070318AE0A0030AE072E08803A85
:10020800FF0080307F02031D0B2932302D02031CB2
:100218000E290F29B6288312031339080319152943
:1002280016291D290130BA070318BB0A0030BB077D
:100238002329FF30BA070318BB0AFF30BB073B0866
:10024800803AFF00A7307F02031D2C2910303A02A4
:10025800031C2F2930293A29831203133A08F03E48
:10026800BA003B080318013ED83EBB0083120313B3
:10027800BB1F3F2940293A283A08103EBA003B08DC
:100288000318013E273EBB003A280A128A110C289F
:10029800F701F31F502951295829F209F309F20AE5
:1002A8000319F30A0130F700F51F5B295C2963295C
:1002B800F409F509F40A0319F50A0130F706F801FB
:1002C800F9017208730403196A296B29A0290130FE
:1002D800F600772901300310F20DF30DFF3E031DE0
:1002E8006F290130F607F31F7A297B296E2901301F
:1002F8000310F80DF90DFF3E031D7C2973087502E4
:10030800031D882972087402031C8B298C299329E0
:100318007208F4027308031CF503F502781401301F
:100328000310F30CF20CFF3E031D94290130F60272
:10033800031D9F29A0297B2977080319A429A5292A
:10034800AA29F809F909F80A0319F90A7908F3003A
:100358007808F2000800FB0183120313A31FB529D4
:10036800B629BD29A209A309A20A0319A30A0130C3
:10037800FB00A11FC029C129C629A009A109A00AFB
:100388000319A10A200821040319CB29CC29F9292A
:100398000130FA00D82901300310A00DA10DFF3E4D
:1003A800031DD0290130FA07A11FDB29DC29CF2939
:1003B80021082302031DE22920082202031CE52943
:1003C800E629EC292008A2022108031CA303A302A2
:1003D80001300310A10CA00CFF3E031DED290130D4
:1003E800FA02031DF829F929DC297B080319FD29DC
:1003F800FE29032AA209A309A20A0319A30A2308AA
:10040800A1002208A00008008B1C0B2A0C2A172A1E
:100418008312031339080319122A142A0130152AE2
:100428000030B9008B1071088A00700E8300FE0E30
:100438007E0E09007E088A007F0882000A128A114F
:100448001E220A128A118000840A04087D060319F4
:100458000034FF0A0319FE0A222A3F3406345B34AB
:100468004F3466346D347D3407347F346F3401344F
:04400E00F12FFF3F50
:00000001FF
