:060000000A128A110C280F
:10000800FE00030EF0000A08F1000A128A11142AF1
:100018000A128A110F2883133B30FD000230FE00BC
:100028003D30FF00303084000A128A112E220A1255
:100038008A11BB01BC0183010A128A112328831685
:10004800031788018901831603138801870101308A
:10005800860083120313880187018316031301089E
:100068007F39810001138B100B168B170A3083120E
:10007800A0000030A1003C08A3003B08A2000A121F
:100088008A11BB210A128A11831203132108A700BF
:100098002008A6000A30A0000030A1000A30F200B3
:1000A8000030F3003C08F5003B08F4000A128A11FE
:1000B80058210A128A11730883120313A3007208C5
:1000C800A2000A128A11BB210A128A118312031391
:1000D8002108A9002008A8000A30A0000030A100CB
:1000E8006430F2000030F3003C08F5003B08F400EF
:1000F8000A128A1158210A128A11730883120313EB
:10010800A3007208A2000A128A11BB210A128A11DE
:10011800831203132108AB002008AA000A30A000AC
:100128000030A100E830F2000330F3003C08F5008D
:100138003B08F4000A128A1158210A128A1173081E
:1001480083120313A3007208A2000A128A11BB21AA
:100158000A128A11831203132108AD002008AC008B
:10016800AE01AF01F7308312031387002C08303E2D
:1001780084008313000888000D3083120313A50040
:10018800FB30A400A40BC628A50BC628FB3083129D
:10019800031387002A08303E840083130008880070
:1001A8000D3083120313A500FB30A400A40BDA283A
:1001B800A50BDA28FD308312031387002808303E88
:1001C80084008313000888000D3083120313A500F0
:1001D800FB30A400A40BEE28A50BEE28FE308312FA
:1001E800031387002608303E840083130008880024
:1001F8000D3083120313A500FB30A400A40B0229C1
:10020800A50B0229013083120313AE070318AF0AA6
:100218000030AF072F08803AFF0080307F02031DAF
:10022800172932302E02031C1A291B29B6288312DB
:1002380003133A0803192129222929290130BB0768
:100248000318BC0A0030BC072F29FF30BB0703186E
:10025800BC0AFF30BC073C08803AFF00A7307F0289
:10026800031D382910303B02031C3B293C29462931
:10027800831203133B08F03EBB003C080318013E01
:10028800D83EBC0083120313BC1F4B294C293A28C3
:100298003B08103EBB003C080318013E273EBC004B
:1002A8003A280A128A110C28F701F31F5C295D29E4
:1002B8006429F209F309F20A0319F30A0130F70075
:1002C800F51F672968296F29F409F509F40A031944
:1002D800F50A0130F706F801F901720873040319E9
:1002E80076297729AC290130F600832901300310DB
:1002F800F20DF30DFF3E031D7B290130F607F31FB6
:10030800862987297A2901300310F80DF90DFF3E57
:10031800031D882973087502031D94297208740245
:10032800031C972998299F297208F4027308031C53
:10033800F503F502781401300310F30CF20CFF3EBC
:10034800031DA0290130F602031DAB29AC2987291A
:1003580077080319B029B129B629F809F909F80A63
:100368000319F90A7908F3007808F2000800FB017C
:1003780083120313A31FC129C229C929A209A309EA
:10038800A20A0319A30A0130FB00A11FCC29CD2919
:10039800D229A009A109A00A0319A10A2008210449
:1003A8000319D729D829052A0130FA00E429013090
:1003B8000310A00DA10DFF3E031DDC290130FA0733
:1003C800A11FE729E829DB2921082302031DEE29BB
:1003D80020082202031CF129F229F8292008A20288
:1003E8002108031CA303A30201300310A10CA00CD5
:1003F800FF3E031DF9290130FA02031D042A052ACC
:10040800E8297B080319092A0A2A0F2AA209A3093D
:10041800A20A0319A30A2308A1002208A0000800C1
:100428008B1C172A182A232A831203133A08031944
:100438001E2A202A0130212A0030BA008B107108A8
:100448008A00700E8300FE0E7E0E09007E088A0068
:100458007F0882000A128A112A220A128A11800051
:10046800840A04087D0603190034FF0A0319FE0AEA
:100478002E2A3F3406345B344F3466346D347D3471
:0804880007347F346F340134A6
:04400E00F12FFF3F50
:00000001FF
