:060000000A128A11D92F3B
:1005EA00073400341A342C343E3483120313860140
:1005FA00F0308316031386008316031789017F30B0
:10060A0083160313810508006E30F300122B0A12B9
:10061A008A1145260A128A11F3006E3073060319ED
:10062A00172B182B0C2B73080800F50083120313E1
:10063A00280884008317291C83130130F3002A0831
:10064A000739013E2A2B0310F30DFF3E031D282B09
:10065A007308FF3A800575080A128A1101240A12E2
:10066A008A1183120313280884008317291C831311
:10067A000130F3002A0CF400F40C740C0739013E23
:10068A00482B0310F30DFF3E031D462B730880040D
:10069A001530F400C630F300F30B512BF40B512B39
:1006AA00000083120313280884008317291C83136C
:1006BA000130F3002A0CF400F40C740C0739013EE3
:1006CA00682B0310F30DFF3E031D662B7308FF3AD8
:1006DA0080050800F5008312031328088400831795
:1006EA00291C83130130F3002A080739013E7F2BA6
:1006FA000310F30DFF3E031D7D2B7308800475085C
:10070A00F30004300310F30CFF3E031D872B73081C
:10071A000F390A128A1101240A128A118312031349
:10072A00280884008317291C83130130F3002A0C3C
:10073A00F400F40C740C0739013EA52B0310F30DD9
:10074A00FF3E031DA32B730880043530F300F30B1F
:10075A00AC2B83120313280884008317291C8313E4
:10076A000130F3002A0CF400F40C740C0739013E32
:10077A00C02B0310F30DFF3E031DBE2B7308FF3A77
:10078A00800575080F390A128A1101240A128A1182
:10079A0083120313280884008317291C831301304A
:1007AA00F3002A0CF400F40C740C0739013EDF2B19
:1007BA000310F30DFF3E031DDD2B73088004353053
:1007CA00F300F30BE62B8312031328088400831724
:1007DA00291C83130130F3002A0CF400F40C740C66
:1007EA000739013EFA2B0310F30DFF3E031DF82BC8
:1007FA007308FF3A80050800F200721C052C062CCB
:10080A001B2C83120313280884008317291C8313C3
:10081A000130F0002B080739013E152C0310F00DAA
:10082A00FF3E031D132C70088004302C831203131F
:10083A00280884008317291C83130130F0002B0831
:10084A000739013E2A2C0310F00DFF3E031D282C08
:10085A007008FF3A8005F21C332C342C4A2C2808E5
:10086A0084008317291C83130130F0002B0CF1003C
:10087A00F10C710C0739013E442C0310F00DFF3EB8
:10088A00031D422C70088004602C280884008317FA
:10089A00291C83130130F0002B0CF100F10C710CB0
:1008AA000739013E5A2C0310F00DFF3E031D582C48
:1008BA007008FF3A8005721D632C642C772C280877
:1008CA0084008317291C83130130F0002C08073990
:1008DA00013E712C0310F00DFF3E031D6F2C7008B2
:1008EA0080048A2C280884008317291C831301306A
:1008FA00F0002C080739013E842C0310F00DFF3E4E
:10090A00031D822C7008FF3A8005F21D8D2C8E2C57
:10091A00A42C280884008317291C83130130F000B3
:10092A002C0CF100F10C710C0739013E9E2C0310BE
:10093A00F00DFF3E031D9C2C70088004BA2C280879
:10094A0084008317291C83130130F0002C0CF1005A
:10095A00F10C710C0739013EB42C0310F00DFF3E67
:10096A00031DB22C7008FF3A80050800203084006D
:10097A00831203132D0883138000840A2E08800033
:10098A00840A2F088000840A30088000840A31080B
:10099A0080007630840020088000840A21088000C4
:1009AA00840A22088000840A23088000840A240812
:1009BA0080000A128A117C250A128A110A128A11E7
:1009CA00FA220A128A1100300A128A111A230A120A
:1009DA008A1101300A128A111A230A128A1108305E
:1009EA000A128A111A230A128A1100300A128A116B
:1009FA001A230A128A1183120313A601A7010A12E3
:100A0A008A1109230A128A1183120313A5002A30B4
:100A1A002506031D112D122D2B2D00300A128A11C5
:100A2A001A230A128A1101300A128A111A230A1287
:100A3A008A1108300A128A111A230A128A110030FE
:100A4A000A128A111A230A128A11002D1030260658
:100A5A002704031D312D322D3F2D0C300A128A1125
:100A6A001A230A128A1100300A128A111A230A1248
:100A7A008A11682D2708803AFF0080307F02031D03
:100A8A00482D20302602031C4B2D4C2D682D00309A
:100A9A000A128A111A230A128A1101300A128A11B9
:100AAA001A230A128A1108300A128A111A230A1200
:100ABA008A1100300A128A111A230A128A11831221
:100ACA000313A601A7018312031325080A128A1128
:100ADA006F230A128A11013083120313A60703181F
:100AEA00A70A0030A707042D0A128A110028283005
:100AFA008400760883138000840A77088000840AB9
:100B0A0078088000840A79088000840A7A088000BC
:100B1A000030831203132906031D952D053028067C
:100B2A00031D982D992D9D2D831603138501D42D10
:100B3A0000302906031DA32D06302806031DA62D05
:100B4A00A72DAB2D831603138601D42D0030290659
:100B5A00031DB12D07302806031DB42DB52DB92D5F
:100B6A00831603138701D42D00302906031DBF2DD8
:100B7A0008302806031DC22DC32DC72D8316031363
:100B8A008801D42D00302906031DCD2D09302806F1
:100B9A00031DD02DD12D442E8316031389016830ED
:100BAA00FC00E430FB00FB0BD82DFC0BD82D000019
:100BBA0003300A128A111A230A128A111A30FC0007
:100BCA00F830FB00FB0BE72DFC0BE72D0000033090
:100BDA000A128A111A230A128A115430FC001C3094
:100BEA00FB00FB0BF62DFC0BF62D000003300A125E
:100BFA008A111A230A128A1102300A128A111A2336
:100C0A000A128A1102300A128A111A230A128A1146
:100C1A0008300A128A111A230A128A1100300A129B
:100C2A008A111A230A128A1106300A128A111A2301
:100C3A000A128A110830FD007D157D08FB00043078
:100C4A000310FB0CFF3E031D252E7B080F390A12E9
:100C5A008A111A230A128A117D080F390A128A1177
:100C6A001A230A128A1100300A128A111A230A1246
:100C7A008A1101300A128A111A230A128A110800EB
:100C8A00831203130610861406158615061A4E2EAD
:100C9A004F2E632E0330F2000830F1007730F00057
:100CAA00F00B552EF10B552EF20B552E8312031312
:100CBA00061E602E612E5B2E3130D82F861A662EC4
:100CCA00672E7B2E0330F2000830F1007730F000F7
:100CDA00F00B6D2EF10B6D2EF20B6D2E831203139A
:100CEA00861E782E792E732E3230D82F061B7E2E32
:100CFA007F2E932E0330F2000830F1007730F00097
:100D0A00F00B852EF10B852EF20B852E8312031321
:100D1A00061F902E912E8B2E3330D82F861B962E9F
:100D2A00972EAB2E0330F2000830F1007730F00036
:100D3A00F00B9D2EF10B9D2EF20B9D2E83120313A9
:100D4A00861FA82EA92EA32E4130D82F061486104E
:100D5A0006158615061AB22EB32EC72E0330F200D8
:100D6A000830F1007730F000F00BB92EF10BB92EF4
:100D7A00F20BB92E83120313061EC42EC52EBF2EE4
:100D8A003430D82F861ACA2ECB2EDF2E0330F2002B
:100D9A000830F1007730F000F00BD12EF10BD12E94
:100DAA00F20BD12E83120313861EDC2EDD2ED72ED4
:100DBA003530D82F061BE22EE32EF72E0330F20031
:100DCA000830F1007730F000F00BE92EF10BE92E34
:100DDA00F20BE92E83120313061FF42EF52EEF2EC3
:100DEA003630D82F861BFA2EFB2E0F2F0330F20037
:100DFA000830F1007730F000F00B012FF10B012FD2
:100E0A00F20B012F83120313861F0C2F0D2F072FAE
:100E1A004230D82F0614861406118615061A162F84
:100E2A00172F2B2F0330F2000830F1007730F00033
:100E3A00F00B1D2FF10B1D2FF20B1D2F8312031325
:100E4A00061E282F292F232F3730D82F861A2E2F08
:100E5A002F2F432F0330F2000830F1007730F000D3
:100E6A00F00B352FF10B352FF20B352F83120313AD
:100E7A00861E402F412F3B2F3830D82F061B462F76
:100E8A00472F5B2F0330F2000830F1007730F00073
:100E9A00F00B4D2FF10B4D2FF20B4D2F8312031335
:100EAA00061F582F592F532F3930D82F861B5E2FE4
:100EBA005F2F732F0330F2000830F1007730F00013
:100ECA00F00B652FF10B652FF20B652F83120313BD
:100EDA00861F702F712F6B2F4330D82F061486145C
:100EEA0006158611061A7A2F7B2F8F2F0330F200F0
:100EFA000830F1007730F000F00B812FF10B812FD1
:100F0A00F20B812F83120313061E8C2F8D2F872F2E
:100F1A002A30D82F861A922F932FA72F0330F20048
:100F2A000830F1007730F000F00B992FF10B992F70
:100F3A00F20B992F83120313861EA42FA52F9F2F1E
:100F4A003030D82F061BAA2FAB2FBF2F0330F20049
:100F5A000830F1007730F000F00BB12FF10BB12F10
:100F6A00F20BB12F83120313061FBC2FBD2FB72F0D
:100F7A002330D82F861BC22FC32FD72F0330F2005E
:100F8A000830F1007730F000F00BC92FF10BC92FB0
:100F9A00F20BC92F83120313861FD42FD52FCF2FFD
:100FAA004430D82F6E3008000A128A11F5220A122C
:100FBA008A11AD000A128A11F6220A128A11AE00AB
:100FCA000A128A11F7220A128A11AF000A128A112A
:100FDA00F8220A128A11B0000A128A11F9220A1298
:100FEA008A11B100A801A901AA01AB01AC018301D0
:060FFA000A128A11BB2C53
:04400E00F22FFF3F4F
:00000001FF
