:100000000A128A11E92F00308A000408840A820744
:10001000003443346134723461346334743465348D
:1000200072343A34003443346F34723461347A3485
:100030006F346E342034003453346E346F346F3484
:100040007034793420340034443469346E346F347D
:040050002034003424
:100758007E088A007F0882000A128A11AC230A12D6
:100768008A118000840A04087D0603190034FF0AF0
:100778000319FE0AB02B073400341A342C343E34E3
:1007880006340F341E341C340E3407340534073451
:1007980007340534073416341F340E340A341B3436
:1007A80000340A341F341F341F340E340434003428
:1007B800F701F801F22B7708760784000A128A11EC
:1007C80003200A128A110A128A113E250A128A1176
:1007D8000130F7070318F80A0030F807770876079A
:1007E80084000A128A1103200A128A11003A031D92
:1007F800FE2BFF2BDF2B0800F5008312031349089B
:10080800840083174A1C83130130F3004B0807390F
:10081800013E102C0310F30DFF3E031D0E2C730830
:10082800FF3A800575080A128A1166260A128A118B
:10083800831203134908840083174A1C8313013069
:10084800F3004B0CF400F40C740C0739013E2E2C09
:100858000310F30DFF3E031D2C2C73088004153084
:10086800F400C630F300F30B372CF40B372C0000E0
:10087800831203134908840083174A1C8313013029
:10088800F3004B0CF400F40C740C0739013E4E2CA9
:100898000310F30DFF3E031D4C2C7308FF3A80052F
:1008A800080083120313BD000730BD053D08F7009B
:1008B80003300310F70DFF3E031D5D2CF030770564
:1008C800F80040307804F9000030FA000430FB00EA
:1008D8007A0DFA0CF90CFB0B6C2C79080A128A11A8
:1008E80000240A128A11831203133D08F70002300C
:1008F8000310F70DFF3E031D7C2C0310770D0F39F5
:1009080040380A128A1100240A128A11831203132A
:10091800BE01BF01831203133E087607F70077086C
:100928008400831300080A128A113E250A128A11CC
:10093800013083120313BE070318BF0A0030BF0734
:100948003F08803AFF0080307F02031DAD2C08303D
:100958003E02031CB02CB12C8E2C08300A128A11CE
:1009680000240A128A1100300A128A1100240A127D
:100978008A1108004330840083120313200883136C
:100988008000840A21088000840A22088000840AE2
:1009980023088000840A240880008316031788012E
:1009A8008901831603130614870181131514763001
:1009B80084008312031343088000840A44088000DB
:1009C800840A45088000840A46088000840A47088B
:1009D80080000A128A1120270A128A11831203132F
:1009E800C80100300A128A11D0250A128A1183120E
:1009F80003130618002D012DFB2C0230831203135C
:100A0800C2000430C100B930C000C00B092DC10BB1
:100A1800092DC20B092D102D831203130618152D4D
:100A2800162DFB2C0130C80703304802031C1D2D6E
:100A38001E2D1F2DC80148080A128A11D0250A1236
:100A48008A1183120313061C2A2D2B2D252D023003
:100A580083120313C2000430C100B930C000C00BB8
:100A6800332DC10B332DC20B332D3A2DFB2C0A121B
:100A78008A110028F500831203134908840083179C
:100A88004A1C83130130F3004B080739013E4E2DF1
:100A98000310F30DFF3E031D4C2D730880047508E9
:100AA800F30004300310F30CFF3E031D562D7308AA
:100AB8000F390A128A1166260A128A118312031341
:100AC8004908840083174A1C83130130F3004B0C38
:100AD800F400F40C740C0739013E742D0310F30D67
:100AE800FF3E031D722D730880043530F300F30BAD
:100AF8007B2D831203134908840083174A1C831330
:100B08000130F3004B0CF400F40C740C0739013E6F
:100B18008F2D0310F30DFF3E031D8D2D7308FF3A33
:100B2800800575080F390A128A1166260A128A1179
:100B3800831203134908840083174A1C8313013066
:100B4800F3004B0CF400F40C740C0739013EAE2D85
:100B58000310F30DFF3E031DAC2D730880043530E0
:100B6800F300F30BB52D8312031349088400831790
:100B78004A1C83130130F3004B0CF400F40C740C82
:100B88000739013EC92D0310F30DFF3E031DC72D84
:100B98007308FF3A80050800FC0000300A128A1129
:100BA80000240A128A1101300A128A1100240A123A
:100BB8008A1108300A128A1100240A128A11003098
:100BC8000A128A1100240A128A110130F6000A1248
:100BD8008A11DC230A128A117C08031DF42DF52DD5
:100BE800172E2530F60000300A128A1155240A12F1
:100BF8008A110C300A128A1100240A128A11003054
:100C08000A128A1100240A128A111430F6000A12F4
:100C18008A11DC230A128A1100300A128A113E2531
:100C28000A128A11652E7C03031D1B2E1C2E3E2ED4
:100C38003530F60000300A128A1155240A128A113A
:100C48000C300A128A1100240A128A1100300A1282
:100C58008A1100240A128A110B30F6000A128A112E
:100C6800DC230A128A1100300A128A113E250A1260
:100C78008A11652E02307C06031D432E442E652EF4
:100C88002D30F60000300A128A1155240A128A11F2
:100C98000C300A128A1100240A128A1100300A1232
:100CA8008A1100240A128A111C30F6000A128A11CD
:100CB800DC230A128A1100300A128A113E250A1210
:100CC8008A110800F200721C6A2E6B2E802E831285
:100CD80003134908840083174A1C83130130F0006A
:100CE8004C080739013E7A2E0310F00DFF3E031D14
:100CF800782E70088004952E831203134908840007
:100D080083174A1C83130130F0004C080739013E51
:100D18008F2E0310F00DFF3E031D8D2E7008FF3A35
:100D28008005F21C982E992EAF2E4908840083174F
:100D38004A1C83130130F0004C0CF100F10C710CCB
:100D48000739013EA92E0310F00DFF3E031DA72E03
:100D580070088004C52E4908840083174A1C831331
:100D68000130F0004C0CF100F10C710C0739013E18
:100D7800BF2E0310F00DFF3E031DBD2E7008FF3A75
:100D88008005721DC82EC92EDC2E490884008317E1
:100D98004A1C83130130F0004D080739013ED62E56
:100DA8000310F00DFF3E031DD42E70088004EF2EB3
:100DB8004908840083174A1C83130130F0004D084A
:100DC8000739013EE92E0310F00DFF3E031DE72E03
:100DD8007008FF3A8005F21DF22EF32E092F4908FC
:100DE800840083174A1C83130130F0004D0CF10076
:100DF800F10C710C0739013E032F0310F00DFF3E73
:100E0800031D012F700880041F2F490884008317D1
:100E18004A1C83130130F0004D0CF100F10C710CE9
:100E28000739013E192F0310F00DFF3E031D172F40
:100E38007008FF3A8005080049308400760883135B
:100E48008000840A77088000840A78088000840A71
:100E580079088000840A7A0880000030831203131E
:100E68004A06031D392F05304906031D3C2F3D2F27
:100E7800412F831603138501782F00304A06031D7E
:100E8800472F06304906031D4A2F4B2F4F2F831635
:100E980003138601782F00304A06031D552F0730AB
:100EA8004906031D582F592F5D2F831603138701F9
:100EB800782F00304A06031D632F08304906031DAA
:100EC800662F672F6B2F831603138801782F003046
:100ED8004A06031D712F09304906031D742F752F0B
:100EE800E82F8316031389016830FC00E430FB0007
:100EF800FB0B7C2FFC0B7C2F000003300A128A119D
:100F080000240A128A111A30FC00F830FB00FB0B8F
:100F18008B2FFC0B8B2F000003300A128A11002440
:100F28000A128A115430FC001C30FB00FB0B9A2F6C
:100F3800FC0B9A2F000003300A128A1100240A12AF
:100F48008A1102300A128A1100240A128A11023008
:100F58000A128A1100240A128A1108300A128A1108
:100F680000240A128A1100300A128A1100240A1277
:100F78008A1106300A128A1100240A128A110830CE
:100F8800FD007D157D08FB0004300310FB0CFF3EBF
:100F9800031DC92F7B080F390A128A1100240A126F
:100FA8008A117D080F390A128A1100240A128A113F
:100FB80000300A128A1100240A128A1101300A121A
:100FC8008A1100240A128A11080083133D30FD009B
:100FD8000330FE00BF30FF00203084000A128A115F
:100FE800B0230A128A11C901CA01CB01CC01CD0173
:080FF80083010A128A11BE2CCC
:04400E00F22FFF3F4F
:00000001FF
