:060000000A128A11EB2F29
:100BC200C034F934A434B034993492348234F834D1
:100BD200803490347E088A007F0882000A128A11CB
:100BE200EB250A128A118000840A04087D06031983
:100BF2000034FF0A0319FE0AEF2D132E2F08F90005
:100C02002E08F8000A128A1122260A128A110630C8
:100C120083120313AB002F30AA00AA0B0E2EAB0BCC
:100C22000E2E132E83120313061C182E192EFF2DBF
:100C3200861C1C2E1D2EFF2D061D202E212EFF2D63
:100C420008000A30F0000030F1007908F30078085B
:100C5200F2000A128A1152260A128A117108FB0046
:100C62007008FA000A30F0000030F1007908F30051
:100C72007808F2000A128A11A9260A128A1171084A
:100C8200FD007008FC007A08203E840083130008EF
:100C92008312031388007C08203E8400000887002A
:100CA2000800F501F31F562E572E5E2EF209F309A6
:100CB200F20A0319F30A0130F500F11F612E622EC8
:100CC200672EF009F109F00A0319F10A700871049C
:100CD20003196C2E6D2E9A2E0130F400792E0130FC
:100CE2000310F00DF10DFF3E031D712E0130F407CC
:100CF200F11F7C2E7D2E702E71087302031D832E30
:100D020070087202031C862E872E8D2E7008F20246
:100D12007108031CF303F30201300310F10CF00C11
:100D2200FF3E031D8E2E0130F402031D992E9A2ED2
:100D32007D2E750803199E2E9F2EA42EF209F3090B
:100D4200F20A0319F30A7308F1007208F0000800AE
:100D5200F501F11FAD2EAE2EB52EF009F109F00A04
:100D62000319F10A0130F500F31FB82EB92EC02E77
:100D7200F209F309F20A0319F30A0130F506F60142
:100D8200F701700871040319C72EC82EFD2E013019
:100D9200F400D42E01300310F00DF10DFF3E031DBF
:100DA200CC2E0130F407F11FD72ED82ECB2E0130D6
:100DB2000310F60DF70DFF3E031DD92E71087302C5
:100DC200031DE52E70087202031CE82EE92EF02E98
:100DD2007008F2027108031CF303F3027614013067
:100DE2000310F10CF00CFF3E031DF12E0130F40252
:100DF200031DFC2EFD2ED82E75080319012F022F7C
:100E0200072FF609F709F60A0319F70A7708F1001E
:100E12007608F000080083160317880189018316FB
:100E2200031381130730860088018701FF30831284
:100E320003138800FF3087002F08F9002E08F800FE
:100E42000A128A1122260A128A11831203132F0808
:100E5200F9002E08F8000A128A1122260A128A11B3
:100E6200831203130618362F372F7B2F1A30831263
:100E72000313AD00F730AC00AC0B3D2FAD0B3D2F93
:100E8200422F831203130618472F482F7B2F30035C
:100E9200031D4C2F4D2F542F0230AE070318AF0AFB
:100EA2000030AF075A2F0130AE070318AF0A0030E7
:100EB200AF072F08803AFF0080307F02031D632FA7
:100EC20064302E02031C662F672F6B2F83120313CD
:100ED200AE01AF01831203132F08F9002E08F800A8
:100EE2000A128A1122260A128A110A128A11FE2570
:100EF2000A128A11831203138618802F812FBA2FA8
:100F02001A3083120313AD00F730AC00AC0B872FFD
:100F1200AD0B872F8C2F831203138618912F922FDC
:100F2200BA2F3003031D962F972F9E2FFE30AE0748
:100F32000318AF0AFF30AF07A42FFF30AE07031824
:100F4200AF0AFF30AF07AF1FA72FA82FAC2F633018
:100F5200AE000030AF002F08F9002E08F8000A1288
:100F62008A1122260A128A110A128A11FE250A12EF
:100F72008A11831203130619BF2FC02F262F1A308E
:100F820083120313AD00F730AC00AC0BC62FAD0BD0
:100F9200C62FCB2F831203130619D02FD12F262F42
:100FA20030080319D52FD72F0130D82F0030B000C9
:100FB2002F08F9002E08F8000A128A1122260A12B6
:100FC2008A110A128A11FE250A128A11262F0A1282
:100FD2008A11002883132A30FD000530FE00E1301B
:100FE200FF00203084000A128A11EF250A128A11AA
:0E0FF200AE01AF01B00183010A128A110C2F6B
:04400E00F12FFF3F50
:00000001FF
