:060000000A128A11FC2F18
:100D700070088312031395001708CF3997000800F5
:100D80000130831603178800890181308312031311
:100D90009F008030831603139F00080083160313FF
:100DA0000711F93092000C308312031397003E3084
:100DB00095000730920008000630F200F20BDE2E9C
:100DC0000000831203139F149F18E72EE82EE42ED1
:100DD0001E08F100831603131E08F00008000030FF
:100DE000FC000030FB000030FA000030F900701CFD
:100DF000FA2EFB2E122F7408F90775080311031839
:100E0000013E0319042FFA07760803110318013E67
:100E100003190B2FFB07770803110318013E031971
:100E2000122FFC070130F8000310F40DF50DF60D3C
:100E3000F70DF80B142F01300310F30CF20CF10C2A
:100E4000F00CFF3E031D1C2F730872047104700424
:100E5000031D2B2F2C2FF72E7C08F3007B08F200AC
:100E60007A08F1007908F00008000A128A11C026F9
:100E70000A128A110A128A11CE260A128A110A123D
:100E80008A11DC260A128A11710883120313B0003A
:100E90007008AF000030A3000030A2000330A100B2
:100EA000FF30A0002F08F0003008F100F201F3013C
:100EB0000030F7000030F6000030F500BC30F400E0
:100EC0000A128A11EF260A128A1173088312031379
:100ED000A7007208A6007108A5007008A4000A12F5
:100EE0008A1196270A128A118312031320083E3EA4
:100EF000B10021080318013E003EB2003208F100A3
:100F00003108F0000A128A11B8260A128A111A3022
:100F100083120313AE00F730AD00AD0B8D2FAE0B77
:100F20008D2F922F3F2F0A128A1100280030831232
:100F30000313AB000030AA000030A9000030A80065
:100F400023082204210420040319A72FA82FF32F1C
:100F50000130AC00B62F0130FD000310A00DA10D33
:100F6000A20DA30DFD0BAD2F0130AC07A31FB92FB0
:100F7000BA2FAB2F0130FD000310A80DA90DAA0D4B
:100F8000AB0DFD0BBC2F23082702031DD12F220818
:100F90002602031DD12F21082502031DD12F200871
:100FA0002402031CD42FD52FE42F2008A4022108EB
:100FB000031C210FA5022208031C220FA6022308EE
:100FC000031C230FA702281401300310A30CA20C4A
:100FD000A10CA00CFF3E031DE52F0130AC02031D48
:100FE000F22FF32FBA2F2B08A3002A08A2002908FA
:100FF000A1002808A000080083010A128A11352FD9
:04400E00F12FFF3F50
:00000001FF
