:060000000A128A11CA2F4A
:10000800831203138601F0308316031386008316C8
:10001800031789017F3083160313810508006E30AA
:10002800F3001C280A128A1142240A128A11F300CA
:100038006E30730603192128222816287308080031
:10004800F500831603132A08840083172B1C8313D7
:100058000130F3002C080739013E34280310F30D52
:10006800FF3E031D32287308FF3A800575080A12FF
:100078008A1179200A128A11831603132A08840028
:1000880083172B1C83130130F3002C0CF400F40CA1
:10009800740C0739013E52280310F30DFF3E031D6F
:1000A8005028730880041530F400C630F300F30BB1
:1000B8005B28F40B5B280000831603132A088400CE
:1000C80083172B1C83130130F3002C0CF400F40C61
:1000D800740C0739013E72280310F30DFF3E031D0F
:1000E80070287308FF3A80050800F200721C7D280A
:1000F8007E289328831603132A08840083172B1C51
:1001080083130130F0002D080739013E8D280310B4
:10011800F00DFF3E031D8B2870088004A828831665
:1001280003132A08840083172B1C83130130F00063
:100138002D080739013EA2280310F00DFF3E031DCC
:10014800A0287008FF3A8005F21CAB28AC28C2280A
:100158002A08840083172B1C83130130F0002D0C10
:10016800F100F10C710C0739013EBC280310F00DA9
:10017800FF3E031DBA2870088004D8282A08840086
:1001880083172B1C83130130F0002D0CF100F10CA8
:10019800710C0739013ED2280310F00DFF3E031DF4
:1001A800D0287008FF3A8005721DDB28DC28EF286C
:1001B8002A08840083172B1C83130130F0002E08B3
:1001C8000739013EE9280310F00DFF3E031DE7281B
:1001D8007008800402292A08840083172B1C8313C3
:1001E8000130F0002E080739013EFC280310F00DFD
:1001F800FF3E031DFA287008FF3A8005F21D052905
:1002080006291C292A08840083172B1C8313013014
:10021800F0002E0CF100F10C710C0739013E162983
:100228000310F00DFF3E031D1429700880043229C5
:100238002A08840083172B1C83130130F0002E0C2E
:10024800F100F10C710C0739013E2C290310F00D57
:10025800FF3E031D2A297008FF3A80050800AA30CE
:100268008400760883138000840A77088000840A53
:1002780078088000840A79088000840A7A08800057
:100288000030831603132B06031D4C2905302A065C
:10029800031D4F29502952298501812900302B0639
:1002A800031D582906302A06031D5B295C295E298F
:1002B8008601812900302B06031D642907302A0690
:1002C800031D672968296A298701812900302B06BF
:1002D800031D702908302A06031D732974297629FD
:1002E8008801812900302B06031D7C2909302A0644
:1002F800031D7F298029F12989016830FC00E43039
:10030800FB00FB0B8529FC0B8529000003300A1232
:100318008A1124200A128A111A30FC00F830FB00D6
:10032800FB0B9429FC0B9429000003300A128A1154
:1003380024200A128A115430FC001C30FB00FB0BED
:10034800A329FC0BA329000003300A128A112420D8
:100358000A128A1102300A128A1124200A128A11FA
:1003680002300A128A1124200A128A1108300A124D
:100378008A1124200A128A1100300A128A112420B4
:100388000A128A1106300A128A1124200A128A11C6
:100398000830FD007D157D08FB0004300310FB0CC0
:1003A800FF3E031DD2297B080F390A128A11242027
:1003B8000A128A117D080F390A128A1124200A129A
:1003C8008A1100300A128A1124200A128A11013077
:1003D8000A128A1124200A128A11080083120313B0
:1003E800C401C501C201C301C101B11FFC29FD2916
:1003F8000A2A0130C100AE09AF09B009B109AE0A35
:100408000319AF0A0319B00A0319B10A31083004F5
:100418002F042E04031D112A122A602A3030B50039
:100428000130C4070318C50A0030C507602A8312C3
:1004380003134408353E84000030F3000030F20016
:100448000030F1000A30F0003108F7003008F600FB
:100458002F08F5002E08F4000A128A158B250A12B7
:100468008A117008303E8313800001308312031311
:10047800C4070318C50A0030C5070030A3000030C0
:10048800A2000030A1000A30A0003108A7003008FF
:10049800A6002F08A5002E08A4000A128A150E2609
:1004A8000A128A11831203132308B1002208B0002C
:1004B8002108AF002008AE00B11B732A3108031DC4
:1004C800722A3008031D722A2F08031D722A013070
:1004D8002E02031D6F2A0318722A732A1B2A8312FD
:1004E800031341080319792A7A2A9F2A42083207F6
:1004F800B300330884002D30831380000130C20715
:100508000318C30A0030C3079F2AFF30831203135E
:10051800C4070318C50AFF30C5074408353E8400E0
:1005280083130008B30042083207B400340884007B
:1005380033088000822A4508803AFF0080307F0215
:10054800031DA82A013044020318AB2AAC2A892AC1
:100558008312031342083207B3003308840083135D
:1005680080010800A0308400831603133308831326
:100578008000840A34088000840A35088000840AD0
:1005880036088000840A3708800076308400200806
:100598008000840A21088000840A22088000840AD6
:1005A80023088000840A240880000A128A11332153
:1005B8000A128A110A128A1104200A128A110A12CE
:1005C8008A15C4240A128A110A128A1113200A12DF
:1005D8008A1183160313A90030302902031CF52A57
:1005E800F62AC12B3A3029020318FB2AFC2AC12B10
:1005F800831203136C080319022B032B082B0A120E
:100608008A15C4240A128A11831603132908D03EB6
:10061800A500FF3003180030A600A701A801831227
:1006280003136D080319192B1A2B632B6B08F3009E
:100638006A08F2006908F1006808F0000030F70065
:100648000030F6000030F5000A30F4000A128A156E
:1006580045250A128A117008831603132507831289
:100668000313E4000030031801307107E601031892
:10067800E60A83160313260783120313E5000318FB
:10068800E60A72086607E7010318E70A83160313E8
:10069800270783120313E6000318E70A730867079E
:1006A80083160313280783120313E7006708EB0078
:1006B8006608EA006508E9006408E800BB2B8316B1
:1006C80003133208F3003108F2003008F1002F0854
:1006D800F0000030F7000030F6000030F5000A3076
:1006E800F4000A128A1545250A128A117008831621
:1006F8000313250783120313E400003003180130A5
:100708007107E6010318E60A831603132607831206
:100718000313E5000318E60A72086607E7010318E1
:10072800E70A83160313270783120313E600031847
:10073800E70A73086707831603132807831203134E
:10074800E700670883160313B200831203136608D1
:1007580083160313B100831203136508831603136A
:10076800B00083120313640883160313AF000A1240
:100778008A15A7260A128A11E82A41302906031980
:10078800C62BC72BD92B423029060319CC2BCD2BCE
:10079800D92B433029060319D22BD32BD92B44301C
:1007A8002906031DD82BD92B202C831203136C0880
:1007B8000319DF2BE02BE52B0A128A15C4240A1231
:1007C8008A11831203136E08031DEB2BEC2BE82A06
:1007D8004130831603132906031DF32BF42BF82B42
:1007E8002B3083120313EE004230831603132906BD
:1007F800031DFF2B002C042C2D3083120313EE0055
:100808004330831603132906031D0B2C0C2C102CC4
:100818002F3083120313EE00443083160313290686
:10082800031D172C182C1C2C2A3083120313EE00DE
:1008380001308312ED00BB2B23302906031D252C24
:10084800262C382C831203136E0803192C2C2D2CFC
:10085800E82A6C08031D312C322CE82A0A128A1166
:10086800D6250A128A11E82A2A302906031D3D2CAA
:100878003E2CE82AE32A0A128A110028831203135D
:100888000610861406158615061A4B2C4C2C602C5F
:100898000330F2000830F1007730F000F00B522CF2
:1008A800F10B522CF20B522C83120313061E5D2CF3
:1008B8005E2C582C3130D52D861A632C642C782C5C
:1008C8000330F2000830F1007730F000F00B6A2CAA
:1008D800F10B6A2CF20B6A2C83120313861E752CFB
:1008E800762C702C3230D52D061B7B2C7C2C902C32
:1008F8000330F2000830F1007730F000F00B822C62
:10090800F10B822CF20B822C83120313061F8D2C01
:100918008E2C882C3330D52D861B932C942CA82C08
:100928000330F2000830F1007730F000F00B9A2C19
:10093800F10B9A2CF20B9A2C83120313861FA52C09
:10094800A62CA02C4130D52D061486100615861528
:10095800061AAF2CB02CC42C0330F2000830F1007A
:100968007730F000F00BB62CF10BB62CF20BB62C4E
:1009780083120313061EC12CC22CBC2C3430D52D77
:10098800861AC72CC82CDC2C0330F2000830F10082
:100998007730F000F00BCE2CF10BCE2CF20BCE2CD6
:1009A80083120313861ED92CDA2CD42C3530D52D7E
:1009B800061BDF2CE02CF42C0330F2000830F10089
:1009C8007730F000F00BE62CF10BE62CF20BE62C5E
:1009D80083120313061FF12CF22CEC2C3630D52D84
:1009E800861BF72CF82C0C2D0330F2000830F10090
:1009F8007730F000F00BFE2CF10BFE2CF20BFE2CE6
:100A080083120313861F092D0A2D042D4230D52D7C
:100A18000614861406118615061A132D142D282D72
:100A28000330F2000830F1007730F000F00B1A2D97
:100A3800F10B1A2DF20B1A2D83120313061E252D06
:100A4800262D202D3730D52D861A2B2D2C2D402DD7
:100A58000330F2000830F1007730F000F00B322D4F
:100A6800F10B322DF20B322D83120313861E3D2D0E
:100A78003E2D382D3830D52D061B432D442D582DAD
:100A88000330F2000830F1007730F000F00B4A2D07
:100A9800F10B4A2DF20B4A2D83120313061F552D15
:100AA800562D502D3930D52D861B5B2D5C2D702D84
:100AB8000330F2000830F1007730F000F00B622DBF
:100AC800F10B622DF20B622D83120313861F6D2D1D
:100AD8006E2D682D4330D52D061486140615861103
:100AE800061A772D782D8C2D0330F2000830F1008E
:100AF8007730F000F00B7E2DF10B7E2DF20B7E2D62
:100B080083120313061E892D8A2D842D2A30D52D94
:100B1800861A8F2D902DA42D0330F2000830F10095
:100B28007730F000F00B962DF10B962DF20B962DE9
:100B380083120313861EA12DA22D9C2D3030D52D96
:100B4800061BA72DA82DBC2D0330F2000830F1009C
:100B58007730F000F00BAE2DF10BAE2DF20BAE2D71
:100B680083120313061FB92DBA2DB42D2330D52DAA
:100B7800861BBF2DC02DD42D0330F2000830F100A4
:100B88007730F000F00BC62DF10BC62DF20BC62DF9
:100B980083120313861FD12DD22DCC2D4430D52D91
:100BA8006E30080083120313D6010030DB000030DA
:100BB800DA000030D9000030D8000030E3000030FF
:100BC800E2000030E1000030E000D701132F831667
:100BD80003132F08831203136807C6000030031895
:100BE800013083160313300783120313C801031857
:100BF800C80A6907C7000318C80A8316031331080F
:100C0800831203134807C9010318C90A6A07C800F1
:100C18000318C90A831603133208831203134907FA
:100C28006B07C9004908DB004808DA004708D90003
:100C38004608D800212F831603132F0883120313A5
:100C4800C60083160313300883120313C7008316E4
:100C58000313310883120313C800831603133208E1
:100C680083120313C9006808C6026908031C690FC8
:100C78003E2E3F2EC7026A08031C6A0F442E452EDB
:100C8800C8026B08031C6B0F4A2E4B2EC902490879
:100C9800DB004808DA004708D9004608D800212FA9
:100CA800831603133208F3003108F2003008F1000C
:100CB8002F08F000831203136B08F7006A08F60088
:100CC8006908F5006808F4000A128A1545250A1211
:100CD8008A11730883120313DB007208DA007108A3
:100CE800D9007008D800212F6B086A0469046804C9
:100CF800031D7F2E802E832E0130D600212F6B08F6
:100D0800A3006A08A2006908A1006808A000831669
:100D180003133208F3003108F2003008F1002F08FD
:100D2800F0000030F7000030F6000030F5006430C5
:100D3800F4000A128A1545250A128A1173088312CB
:100D48000313A7007208A6007108A5007008A40084
:100D58000A128A150E260A128A118312031323080F
:100D6800DF002208DE002108DD002008DC0000305A
:100D7800A3000030A2000030A1006430A0005F088A
:100D8800A7005E08A6005D08A5005C08A4000A127A
:100D98008A150E260A128A11831203132308DB0010
:100DA8002208DA002108D9002008D8000030F30012
:100DB8000030F2000030F1006430F0005F08F70006
:100DC8005E08F6005D08F5005C08F4000A128A1552
:100DD8008B250A128A11730883120313E300720821
:100DE800E2007108E1007008E000E31FFC2EFD2E10
:100DF800082FE009E109E209E309E00A0319E10A19
:100E08000319E20A0319E30A63086204610460042F
:100E180003190F2F102F212F0130D700212F6E0813
:100E28002A3A0319542E013A0319EB2D063A0319ED
:100E38001F2E023A0319782E212F0C300A128A111C
:100E480024200A128A1100300A128A1124200A1258
:100E58008A11013083120313B1008030B2000A12E4
:100E68008A15FF240A128A110C300A128A112420CA
:100E78000A128A1100300A128A1124200A128A11D1
:100E880083120313560803194A2F4B2F552F12307C
:100E9800B1008030B2000A128A15FF240A128A11A2
:100EA800C52F2030B1008030B2000A128A15FF2405
:100EB8000A128A11831203135B08B1005A08B000A2
:100EC8005908AF005808AE004A30B2000A128A1119
:100ED800F2210A128A114A3083120313B10000303A
:100EE800B2000A128A15FF240A128A118312031308
:100EF80057080319802F812FC52F2E300A128A1503
:100F080048270A128A11003083120313A300003005
:100F1800A2000030A1000A30A0006308A700620800
:100F2800A6006108A5006008A4000A128A150E260A
:100F38000A128A11831203132008303E0A128A15F6
:100F480048270A128A110030F3000030F2000030FE
:100F5800F1000A30F000831203136308F7006208F7
:100F6800F6006108F5006008F4000A128A158B255E
:100F78000A128A117008303E0A128A1548270A1286
:100F88008A11013083120313EC000800831603133F
:100F98000A128A15BF240A128A11B3000A128A1586
:100FA800C0240A128A11B4000A128A15C1240A122E
:100FB8008A11B5000A128A15C2240A128A11B600CB
:100FC8000A128A15C3240A128A11B700AA01AB01B2
:100FD800AC01AD01AE01AF01B001B101B2018312A4
:100FE8000313E801E901EA01EB01EC01ED01EE016F
:100FF80083010A128A11B62AFF1B0A2883137F1855
:1010080083170008840A0319FF0A080008308A00B9
:101018000408840A82070034203420342034203421
:101028002034203420342034203420342034203418
:10103800203420342034203400343D3420344534E6
:101048007234723420342834443469347634203489
:101058003034293400343D34203400343034003402
:10197E00073400341A342C343E34003083160313EB
:10198E00B2000030B1000030B0000030AF000030C7
:10199E0083120313EB000030EA000030E900003040
:1019AE00E800EE01ED01EC0100300A128A1124204C
:1019BE000A128A1501300A128A1124200A128A1577
:1019CE0008300A128A1124200A128A1500300A12CF
:1019DE008A1124200A128A15233083120313B100B0
:1019EE008030B2000A128A15FF240A128A150800E6
:1019FE0083120313B601B701282D36083107B40040
:101A0E003208B3000318B30AB61F0E2DB3038312A8
:101A1E0003133308B5003508FF00340884000A129A
:101A2E008A1500200A128A150A128A1548270A12E8
:101A3E008A15013083120313B6070318B70A003054
:101A4E00B70736083107B4003208B3000318B30ADB
:101A5E00B61F322DB303831203133308B5003508B6
:101A6E00FF00340884000A128A1500200A128A1513
:101A7E00003A031D432D442D042D08000030FC00B8
:101A8E000030FB000030FA000030F900701C502DC1
:101A9E00512D682D7408F907750803110318013EBE
:101AAE0003195A2DFA07760803110318013E03197C
:101ABE00612DFB07770803110318013E0319682DEA
:101ACE00FC070130F8000310F40DF50DF60DF70DBF
:101ADE00F80B6A2D01300310F30CF20CF10CF00C24
:101AEE00FF3E031D722D7308720471047004031DF2
:101AFE00812D822D4D2D7C08F3007B08F2007A0893
:101B0E00F1007908F0000800FA01F71F8F2D902DD3
:101B1E009D2DF409F509F609F709F40A0319F50ADA
:101B2E000319F60A0319F70A0130FA00F31FA02D64
:101B3E00A12DAC2DF009F109F209F309F00A0319F0
:101B4E00F10A0319F20A0319F30A730872047104F5
:101B5E0070040319B32DB42DF52D0130F900C22DEB
:101B6E000130F8000310F00DF10DF20DF30DF80B2E
:101B7E00B92D0130F907F31FC52DC62DB72D7308EA
:101B8E007702031DD42D72087602031DD42D710821
:101B9E007502031DD42D70087402031CD72DD82D89
:101BAE00E62D7008F4027108031C710FF50272081D
:101BBE00031C720FF6027308031C730FF702013039
:101BCE000310F30CF20CF10CF00CFF3E031DE72D8D
:101BDE000130F902031DF42DF52DC62D7A080319D7
:101BEE00F92DFA2D052EF409F509F609F709F40A6F
:101BFE000319F50A0319F60A0319F70A7708F30011
:101C0E007608F2007508F1007408F00008008312DF
:101C1E000313A901A31F142E152E222EA009A1090C
:101C2E00A209A309A00A0319A10A0319A20A0319FA
:101C3E00A30A0130A900A71F252E262E332EA40994
:101C4E00A509A609A709A40A0319A50A0319A60A34
:101C5E000319A70A0130A9060030AD000030AC0010
:101C6E000030AB000030AA00230822042104200417
:101C7E000319422E432E8E2E0130A800512E013014
:101C8E00FD000310A00DA10DA20DA30DFD0B482EFE
:101C9E000130A807A31F542E552E462E0130FD00ED
:101CAE000310AA0DAB0DAC0DAD0DFD0B572E230879
:101CBE002702031D6C2E22082602031D6C2E2108FE
:101CCE002502031D6C2E20082402031C6F2E702E7D
:101CDE007F2E2008A4022108031C210FA502220832
:101CEE00031C220FA6022308031C230FA7022A148B
:101CFE0001300310A30CA20CA10CA00CFF3E031D7F
:101D0E00802E0130A802031D8D2E8E2E552E2908F1
:101D1E000319922E932E9E2EAA09AB09AC09AD097A
:101D2E00AA0A0319AB0A0319AC0A0319AD0A2D0846
:101D3E00A3002C08A2002B08A1002A08A00008006E
:101D4E0008300A128A1124200A128A1500300A124B
:101D5E008A1124200A128A15013083120313B1004E
:101D6E008030B2000A128A15FF240A128A15083032
:101D7E000A128A1124200A128A1500300A128A11B8
:101D8E0024200A128A1583160313320883120313B2
:101D9E00B10083160313310883120313B0008316A8
:101DAE000313300883120313AF00831603132F0897
:101DBE0083120313AE004630B2000A128A11F221CA
:101DCE000A128A15463083120313B1000030B20096
:101DDE000A128A15FF240A128A15831203136E083B
:101DEE000319FA2EFB2E472F20300A128A15482788
:101DFE000A128A15831203136E080A128A154827CF
:101E0E000A128A1520300A128A1548270A128A15D4
:101E1E00831203136D080319152F162F392F6B0814
:101E2E006A046904680403191D2F1E2F392F6B08CD
:101E3E00B1006A08B0006908AF006808AE0046300D
:101E4E00B2000A128A11F2210A128A154630831242
:101E5E000313B1000030B2000A128A15FF240A12D1
:101E6E008A15472F6D0803193D2F3E2F472F23301C
:101E7E00B1008030B2000A128A15FF240A128A15A8
:101E8E00080083120313B000831603132A0884007C
:101E9E0083172B1C8313013083120313AE0083169A
:101EAE0003132C080739013E83120313602F03100E
:101EBE00AE0DFF3E031D5E2F2E0880043008AE00CF
:101ECE0004300310AE0CFF3E031D682F2E080F3991
:101EDE000A128A1179200A128A15831603132A0808
:101EEE00840083172B1C8313013083120313AE005F
:101EFE00831603132C0C83120313AF00AF0C2F0C9D
:101F0E000739013E8C2F0310AE0DFF3E031D8A2FA5
:101F1E002E088004343083120313AE00AE0B952FBF
:101F2E000000831603132A08840083172B1C8313C7
:101F3E00013083120313AE00831603132C0C83128D
:101F4E000313AF00AF0C2F0C0739013EB02F031057
:101F5E00AE0DFF3E031DAE2F2E08FF3A8005300852
:101F6E000F390A128A1179200A128A158316031361
:101F7E002A08840083172B1C83130130831203134A
:101F8E00AE00831603132C0C83120313AF00AF0C99
:101F9E002F0C0739013ED52F0310AE0DFF3E031D4A
:101FAE00D32F2E088004343083120313AE00AE0BF1
:101FBE00DE2F0000831603132A08840083172B1CC0
:101FCE008313013083120313AE00831603132C0CFC
:101FDE0083120313AF00AF0C2F0C0739013EF92FFC
:101FEE000310AE0DFF3E031DF72F2E08FF3A80059E
:021FFE000800D9
:04400E00F22FFF3F4F
:00000001FF
